:100000000C9474060C9491060C9491060C94FB319C
:100010000C9491060C9491060C9491060C94910604
:100020000C9491060C9491060C94E4120C94B9195A
:100030000C94F2280C9491060C9491060C94910661
:100040000C9491060C9491060C9491060C949106D4
:100050000C9491060C94BD130C9491060C9491068B
:100060000C9491060C9491060C9491060C949106B4
:100070000C9491060C9491060C9491060C949106A4
:100080000C9491060C9491060C9491060C94910694
:100090000C9491060C9491060C9491060C94910684
:1000A0000C9491060C9491060C949106050109029A
:1000B000A10185020901A100050919012905150001
:1000C00025019505750181029501750381010501E1
:1000D000093009311581257F950275088106093897
:1000E0001581257F950175088106050C0A380215D2
:1000F00081257F950175088106C0C005010980A191
:1001000001850319012AB700150126B7009501756D
:10011000108100C0050C0901A101850419012AA064
:1001200002150126A002950175108100C005010984
:1001300006A1018506050719E029E71500250195A7
:1001400008750181020507190029EF1500250195A1
:10015000F0750181020508190129059505750191C0
:1001600002950175039101C00660FF0961A10109B3
:1001700062150026FF0095207508810209631500AD
:1001800026FF00952075089102C005010906A1010E
:10019000050719E029E71500250195087501810279
:1001A0009501750881010507190029FF150026FF33
:1001B0000095067508810005081901290595057542
:1001C000019102950175039101C000DA0281FFD906
:1001D000F1DB20A4A62EAF00A0C000A1C800AED5C0
:1001E00080A81FD300408D14200041646A75737489
:1001F000005261697365004C6F77657200446566F3
:1002000061756C74004C617965723A20008081825E
:10021000838485868788898A8B8C8D8E8F90919236
:100220009394A0A1A2A3A4A5A6A7A8A9AAABACAD8C
:10023000AEAFB0B1B2B3B4C0C1C2C3C4C5C6C7C803
:10024000C9CACBCCCDCECFD0D1D2D3D400FD377A52
:10025000585A000004E6D6B44602002101160000F8
:1002600000742FE5A3E00423013B5D003D8889C6AF
:100270005436C3174FE4DCCBB3DF6320E7D717391D
:10028000D83D5F52C90BECB7E6D5195224B073675D
:1002900059B3E0B456C74788C96520CF4A3C940C8F
:1002A000015E29865C8E45BDB36475555AE5389567
:1002B000D3A636E143F0E57DA54EF2FAD0F9A7BD0D
:1002C00092DC4E3A08A56C0077122D63D505D4F860
:1002D000BF27002D620478AFC466BF1B0F3B6D21A2
:1002E000A7D4C98FA39864CEA59DE6E2C1169A59FA
:1002F00087469A83B543B2D6E2F7942DD1A1E5950E
:100300004A48156852603DDCC90B0B80BEE81C12E0
:1003100014FA8A505E6655D67F675C16808B0BF0A8
:10032000985447C1AF899081A319BF39803B3511DB
:100330003B87F70B9B6EA779950F42551FFB120069
:10034000924AA14848471038E669348C72104196A9
:1003500000D800E478CE917AEA7F5496622534433F
:100360000A67FFEB514A53A7A022B6D93E0E302FA1
:100370008D90DA5164A209600EDC16822BCC2A52D1
:10038000FB8FDC34BB098680ACA5ABA26DA0BD0E93
:10039000DFDCCC9F21BBA4230C36DC6EE773C233B9
:1003A0009644A1D8B1C4000000A27C148C0E13A006
:1003B000550001D702A4080000C074B47AB1C46724
:1003C000FB020000000004595A2B0014001A000818
:1003D0000015001700E00004001600070009000ADD
:1003E00000E1001D001B00060019000500000000D0
:1003F000000000E300105F2C002A00130012000C24
:100400000018001C00340033000F000E000D000B1C
:1004100000290038003700360010001100000000ED
:10042000000000E600115F28002B001E001F0020C6
:100430000021002200E00000000000000000000099
:1004400000E10000000000000000000000000000CB
:10045000000000E30001002C002A002700260025F0
:100460000024002300000000004F00520051005003
:10047000000000000000000000000000000000007C
:10048000000000E600010028002B001E021F0220D1
:100490000221022202E00000000000000000000033
:1004A00000E100000000000000000000000000006B
:1004B000000000E30001002C002A0027022602258C
:1004C00002240223023500310030002F002E002DBF
:1004D000003502310230022F022E022D02000000F0
:1004E000000000E60001002800005C0000000000A1
:1004F0000000000000C25CC55CC75CC95C00000075
:1005000000C35CC65CC85CCA5C0000000000000060
:10051000000000E30001002C0000000000000000CB
:1005200000000000000000000000000000000000CB
:1005300000000000000000000000000000000000BB
:10054000000000E60001002800010001005403271C
:10055000115A11000002000200500327115A110025
:100560000003000100550327115A11000004000286
:10057000003A0327115A1179090500010056032793
:10058000115A110000060002003C0327115A110005
:100590000007000200520327115A11000008000151
:1005A00000570327115A110000090002003E0327DB
:1005B000115A1154090A000200400327115A11541C
:1005C000090B000200420327115A1154090C0002C2
:1005D00000440327115A1154090D00020046032755
:1005E000115A1154090E000200480327115A1154E0
:1005F000090F0002004A0327115A11540910000282
:10060000004C0327115A115409110002004E032710
:10061000115A11540912000200580327115A1100EF
:1006200000130002005A0327115A110000140001A0
:10063000005C0327115A110000150000000000DAC9
:1006400008131B000000AF00AE09025B00030100AD
:10065000A0FA0904000001030101000921110100B1
:10066000012240000705810308000109040100027E
:100670000300000009211101000122220007058268
:100680000320000107050303200001090402000103
:100690000300000009211101000122BC00070584AC
:1006A000032000011201000200000008534601006F
:1006B0000100010203011C037600690061006C0067
:1006C0003A006600360034006300320062003300F6
:1006D000630000000C0343006F0072006E006500B1
:1006E0000000100366006F006F007300740061006B
:1006F0006E00000004030904000000000000000078
:1007000000000000000000000000000000000000E9
:100710000000000000000000000000007E0F00D478
:10072000FFFFFFC70000007800000000000000008D
:100730002A2B28000000000000000000000000003C
:1007400000000029000000002C1E34202122243447
:100750002627252E362D3738271E1F202122232419
:1007600025263333362E37381F0405060708090AB5
:100770000B0C0D0E0F101112131415161718191A51
:100780001B1C1D2F3130232D350405060708090ACF
:100790000B0C0D0E0F101112131415161718191A31
:1007A0001B1C1D2F3130354C0000000000003E5B4B
:1007B0004F5B3E003E6B4F6B3E001C3E7C3E1C0080
:1007C000183C7E3C18001C577D571C001C5E7F5E49
:1007D0001C0000183C180000FFE7C3E7FF000018EA
:1007E00024180000FFE7DBE7FF0030483A060E0060
:1007F000262979292600407F05050700407F052529
:100800003F005A3CE73C5A007F3E1C1C0800081C75
:100810001C3E7F0014227F2214005F5F005F5F0098
:1008200006097F017F00006689956A00606060604C
:10083000600094A2FFA2940008047E040800102027
:100840007E20100008082A1C0800081C2A0808003E
:100850001E10101010000C1E0C1E0C0030383E38FC
:100860003000060E3E0E06000000000000000000F2
:100870005F000000000700070000147F147F1400D1
:10088000242A7F2A12002313086462003649562066
:100890005000000807030000001C22410000004136
:1008A000221C00002A1C7F1C2A0008083E080800A1
:1008B0000080703000000808080808000000606030
:1008C00000002010080402003E5149453E0000424D
:1008D0007F4000007249494946002141494D33009B
:1008E0001814127F10002745454539003C4A4949F4
:1008F000310041211109070036494949360046496E
:1009000049291E00000014000000004034000000CF
:10091000000814224100141414141400004122147D
:1009200008000201590906003E415D594E007C1243
:1009300011127C007F49494936003E414141220065
:100940007F4141413E007F49494941007F090909F2
:1009500001003E41415173007F0808087F000041BB
:100960007F4100002040413F01007F0814224100E8
:100970007F40404040007F021C027F007F0408103F
:100980007F003E4141413E007F09090906003E418A
:1009900051215E007F091929460026494949320044
:1009A00003017F0103003F4040403F001F204020E3
:1009B0001F003F4038403F006314081463000304E5
:1009C000780403006159494D4300007F41414100D3
:1009D000020408102000004141417F00040201028E
:1009E000040040404040400000030708000020543D
:1009F000547840007F284444380038444444280058
:100A0000384444287F0038545454180000087E09A4
:100A100002001824241C78007F0804047800004495
:100A20007D4000002040403D00007F102844000031
:100A300000417F4000007C04780478007C080404B6
:100A400078003844444438007C18242418001824C2
:100A500024187C007C0804040800485454542400E2
:100A600004043F4424003C4040207C001C204020E3
:100A70001C003C4030403C004428102844004C906E
:100A800090907C004464544C4400000836410000BF
:100A90000000770000000041360800000201020457
:100AA00002003C2623263C0000000000000000005D
:100AB0000000000000000000C0E0F0F8F81800C0DE
:100AC000F0FCFEFFFFFFFFFFFFFF7E0000000000C5
:100AD0000000000080C0E0E0E0E0E0E0E0E0C08096
:100AE0000000000080C0E0E0E0E0E0E0E0E0C08086
:100AF000000000E0E0C0C0E0E0E0E00000E0E0C0B6
:100B0000C0E0E0E0E0E0C0800000000080C0E0E085
:100B1000E0E0E0E0E0E0C080000000000000000055
:100B2000000000000000E0F0F0F0E0ECEEF7F37001
:100B300020007C7C7C7E007E7E7E7F7F7F0000802C
:100B4000C0E07E5B4F5BFEC00000C000DCD7DEDE95
:100B5000DED7DC00C0000000000000000000000044
:100B60000000000000000000000000000000000085
:100B700000F8FCFEFFE000FFFFFFFFFFFF80FFFF2C
:100B8000FFFFFFFFFFFFFF1F070100000000000045
:100B9000000000FFFFFF8100000000000081C3C3D0
:100BA000C30000FFFFFF8100000000000081FFFF85
:100BB000FF0000FFFFFF01000000000000FFFFFF3B
:100BC000010000000001FFFFFF0000FFFFFF9D1C70
:100BD0001C1C1C1C1C9DDFDFDF000000000000004F
:100BE0000000000000000F1F3F7F7F7F7F7F3F1EC0
:100BF0000C001F1F1F3F003F3F3F7F7F7F00307B68
:100C00007F7830202030787F3B0003000F7F0F0F6C
:100C10000F7F0F0003000000000000000000000034
:100C200000000000000000000000000000000000C4
:100C300000030F1F3F3F3F3F1F1F3F3F7F7F7F3F0F
:100C40003F1F3F7F7F7F7F7C7878381C0F0000003C
:100C50000000000001030707070707070707030154
:100C60000000000001030707070707070707030144
:100C7000000000070707000000000000000707074A
:100C8000000000000000070707000000010307073D
:100C90000707070707070301000000000000000026
:100CA0000000000000000000000000000000000044
:100CB0000000000000000000000000000000000034
:100CC0000000000000000000000000000000000024
:100CD0000000000000000000000000000000000014
:100CE000000000000000000011241FBECFEFDAE07A
:100CF000DEBFCDBF11E0A0E0B1E0E6E9FDE602C055
:100D000005900D92A43EB107D9F725E0A4EEB1E01D
:100D100001C01D92A13BB207E1F70E9419290C9472
:100D200096360C940000FC01AC014C5F5F4F8FEFD6
:100D300091E32191822728E030E087FF09C0880FE6
:100D4000892721503109C9F7E417F50791F708956C
:100D5000880FF7CFE8EDF0E080818E7F80831092DE
:100D6000E2001092DA001092E100A0EEB0E08C9167
:100D700081608C9380818F77808319BCA7EDB0E070
:100D80008C918E7F8C9380818F7E808310927203F2
:100D900008952091E4003091E50095E6A9012091A5
:100DA000EC00822F817020FF06C08091E80080FF58
:100DB00006C080E008952091E80022FD1AC08091CD
:100DC0009703882389F0853089F08091EB0085FDB9
:100DD0000FC02091E4003091E50042175307F9F26B
:100DE0009150E1F684E0089582E0089583E008954B
:100DF00081E00895EF92FF920F931F93CF937C01B0
:100E00008B010E94C906C82F811117C08091E8008C
:100E100085FD0BC08091E8008E778093E8000E94EA
:100E2000C906882399F3C82F08C0F70181917F0173
:100E30008093F1000150110949F78C2FCF911F9138
:100E40000F91FF90EF9008958091990387FF13C051
:100E50008091E80082FF06C08091E8008B77809344
:100E6000E80004C0809197038111F2CF089580912A
:100E700097038823D9F38091E80080FFF8CF809111
:100E8000E8008E77ECCF982F9093E900242F762FEF
:100E900050E0891731F07091EC002091ED005091F5
:100EA000F00021FD07C09F5F973071F78093E90044
:100EB00081E008953091EB003E7F3093EB0030915C
:100EC000ED003D7F3093ED003091EB0031603093C9
:100ED000EB007093EC002093ED005093F000209114
:100EE000EE0027FDE0CF80E00895B0E0A0E0EBE762
:100EF000F7E00C943533C8EDD0E088818F7E88838D
:100F0000E7EDF0E080818160808384E082BF81E052
:100F10008093720388818E7F888302EE10E0F8014F
:100F200010821092DA0081EEC82ED12CF6011082C8
:100F300088818F77888388818068888388818F7D86
:100F4000888319BC1092970310929803109296030D
:100F50001092950390EEE92EF12CF70180818B7FA2
:100F6000808388818160888342E060E080E00E9425
:100F70004307F60180818E7F8083F8018081816044
:100F80008083808188608083F70180818E7F808369
:100F9000888180618883CDB7DEB7E8E00C94513357
:100FA000FC0180919F039091A00386179707A0F002
:100FB0006115710529F49091E8009E779093E800FF
:100FC00090E06115710551F4911108C08091E8001D
:100FD00082FF34C080E00895BC01F2CF8091970376
:100FE0008823C1F18530C1F18091E80083FD30C0D4
:100FF0008091E80082FDEACF8091E80080FFE1CF98
:101000008091F3002091F200382F6115710519F0DD
:101010002830310558F091E02830310509F090E092
:101020002091E8002E772093E800CBCF8191809328
:10103000F100615071092F5F3F4FE7CF8091970317
:10104000882341F0853041F08091E80083FFBECFD6
:1010500081E0089582E0089583E0089508958091E5
:101060007403089587E797E7909301088093000839
:1010700088E19AE00FB6F894A895809360000FBEBF
:1010800090936000FFCF2FB7F8946091690370913F
:101090006A0380916B0390916C032FBF0895209198
:1010A00039012223C9F020916D0327FF15C0E62FD7
:1010B000E695E695E695EE31D8F4E80FF92FF11DA7
:1010C000677021E030E001C0220F6A95EAF72095B1
:1010D0008281282322830895FC013296089621916B
:1010E000621303C0DF0111971C92E817F907B9F7E3
:1010F0000895209139012223C1F020916D0327FF2B
:1011000014C0E62FE695E695E695EE31F8F4E80F83
:10111000F92FF11D677021E030E001C0220F6A95C0
:10112000EAF78281822B82830895FC0132962FEFA9
:1011300030E04191641751F02F3F19F4411101C083
:10114000232F3F5F3630A9F72F3F09F40895820F10
:10115000911D27FD9A95FC016283089520916603F5
:10116000309167032817390771F0909367038093D4
:101170006603E0916403F0916503309721F00084E9
:10118000F185E02D09950895209162033091630364
:101190002817390771F09093630380936203E091FD
:1011A0006403F0916503309721F00680F781E02D0C
:1011B00009950895B0E0A0E0E0EEF8E00C94333338
:1011C0008FEF9FEF4430510508F469C040916D03E3
:1011D00041FB882780F990E0880F991F42FB002788
:1011E00000F910E0000F111F000F111F802B912B31
:1011F00040FBCC24C0F8D12C8C299D2943FB22270D
:1012000020F9C22FE0E0DE2F53E0CC0FDD1F5A950E
:10121000E1F78C2B9D2B44FBAA27A0F9B0E0E4E07A
:10122000AA0FBB1FEA95E1F78A2B9B2B45FBEE2704
:10123000E0F9F0E0A5E0EE0FFF1FAA95E1F78E2B95
:101240009F2B46FB222720F930E0B6E0220F331F08
:10125000BA95E1F7822B932B47FB222720F930E048
:101260003695322F222737952795822B932B209165
:101270006E03322F3170F32EE82EF92A2695217055
:10128000B22EBB0CA82EBF28C501BB0CAA0BBB0BF2
:10129000FB0180839183A283B38390E080E0CDB78C
:1012A000DEB7EAE00C944F33EAE3F3E08481958102
:1012B0002AE030E0B9010E9417336093350186813E
:1012C0008093340182858093330184858093320139
:1012D00086859785B9010E94173360933101808913
:1012E00080933001828980932F01848980932E011D
:1012F000089580913A0390913B0390933701809336
:101300003601089590910B03803F59F480910C03AE
:1013100087FF0DC010920C0391110BC010920303B4
:1013200008C0813F81F480910C0318169CF3992327
:1013300081F080910D0390910E03892B09F064C018
:10134000109202030895823F49F497FFF0CF109264
:101350000B0380910C038111ECCFE0CF833F19F494
:101360001916ACF3E4CF20910D03893F29F412162E
:10137000F4F610920D03DBCF8A3F19F427FFD7CF85
:10138000F8CF20910E038B3F29F427FFD0CF109286
:101390000E03CDCF8C3F19F41216CCF3C8CF843F87
:1013A00031F480910A038E7F80930A03C0CF853F7A
:1013B00021F480910A038D7FF7CF863F21F480913D
:1013C0000A038B7FF1CF873F21F480910A03877F47
:1013D000EBCF883F21F480910A038F7EE5CF8D3FCC
:1013E00031F4809104038E7F80930403A0CF8E3F5D
:1013F00021F4809104038D7FF7CF8F3F09F097CFC1
:10140000809104038B7FF0CF08958091040380FFC7
:101410000CC060912F0170E0759567957595679583
:101420006115710549F1862F089581FF06C060910D
:101430002F0170E075956795F3CF60912F0182FDC4
:101440000BC0909102039923A1F060912E0180912D
:101450002F01961738F0682F70E06038710500F39F
:101460008FE70895899FC001112470E00E946E33B8
:10147000F4CF61E070E0D7CF81E00895809104035C
:10148000609142037091430380FF16C020913301A5
:10149000269FC001279F900D1124BC01769567956A
:1014A000769567956038710508F043C06115710540
:1014B00009F441C0862F089581FF0BC020913301AC
:1014C000269FC001279F900D1124BC01769567953A
:1014D000E9CF82FF09C0809133019B01829FB00157
:1014E000839F700D1124DECF209103032223D1F2BC
:1014F0009091320180913301482F50E0291748F034
:10150000CB01849FB001859F700D949F700D1124B5
:10151000C9CF289F90011124269FA001279F500D1D
:10152000369F500D1124692F70E0CA010E941733B5
:10153000B9CF8FE7089581E00895803F31F40E948C
:101540003E0A819580930C030895813F19F40E940F
:101550003E0AF8CF823F31F40E943E0A8195809383
:101560000B030895833F19F40E943E0AF8CF893F88
:1015700029F40E94050A80930D0308958A3F21F4FF
:101580000E94050A8195F7CF8B3F31F40E94050A2E
:10159000819580930E0308958C3F19F40E94050AEB
:1015A000F8CF843F31F480910A03816080930A036D
:1015B0000895853F21F480910A038260F7CF863F2A
:1015C00021F480910A038460F1CF873F21F4809158
:1015D0000A038860EBCF883F21F480910A03806181
:1015E000E5CF8D3F31F48091040381608093040343
:1015F00008958E3F21F4809104038260F7CF8F3FDE
:10160000B9F7809104038460F1CF80E00895F894E5
:10161000E82FE295EF70F0E031A1282F2F7081E0E4
:1016200090E001C0880F2A95EAF7982F90959323B0
:1016300091A392A1892B82A37894089590916D0330
:1016400092FF06C0282F28712830F9F4877F846024
:1016500093FF06C0282F28712831F1F4877E84611A
:1016600020916E0320FF06C0382F38713830D9F42E
:10167000877F816021FF06C0282F28712831D1F48F
:10168000877E816194FD877E0895282F2471243000
:10169000F9F68B7F8860DCCF282F2471243101F785
:1016A0008B7E8861DDCF382F3171313019F78E7F15
:1016B0008860E0CF282F2171213121F78E7E88614B
:1016C000E1CFCF93DF93EC0182389105B1F108F0BF
:1016D00040C08133910509F49DC048F589329105D8
:1016E00009F48DC08A9709F49CC0C11521E5D20781
:1016F00008F0C3C0C11530E5D30708F01EC1C83ECD
:10170000D10508F0A3C0C13ED10588F5C83AD1057E
:1017100008F08EC0C53AD10508F007C1C130D10527
:1017200031F1209721F1C430D10508F545C085334A
:10173000910509F45FC0C997C1F680916D0383706C
:1017400009F044C180916E0383FF11C0C9E2D0E06B
:101750000EC0833E910599F170F4803E910501F130
:10176000823E910511F680916D0382FD21C0CE016C
:10177000DF91CF910895863E910561F1873E9105F5
:1017800071F1843E910509F0B0CF80916E0381FF25
:10179000EECF80916D03C7EED0E084FD0DC0E7CFA2
:1017A00080916D0380FD33C090916E0390FFDFCF79
:1017B000C3EED0E084FFDBCFD0E0C0E0D8CF809193
:1017C0006D0382FD00C190916E0390FDFFC084FF08
:1017D000CECFF2CF80916D0383FDDDCFC8CF809156
:1017E0006D0383FDF6C090916E0391FFF0CFC4EEC0
:1017F000D0E0BDCF80916D0385FFB9CFA7CF809199
:101800006D0385FDE9C080916E0383FFB0CFC9E30E
:10181000D0E0ADCF80916D0386FFA9CFCAE2D0E0C2
:10182000A6CF80916D0386FFA2CFC1E3D0E09FCF0A
:10183000CF3BD10508F6C85AD0E0CC0FDD1FCE56FD
:10184000DE4F0990D881C02DD46491CFC11540E2FC
:10185000D40758F4C11581E0D80708F088CFC03FFD
:10186000D10508F4A9CFD06582CFC11520E4D207F5
:1018700008F4A2CFDF70D06A7ACFC11535E5D3075F
:1018800018F5C11544E5D40708F085C0C11583E5F6
:10189000D80708F06CC0C11522E5D20708F462C071
:1018A000CE018370992721E030E002C0220F331F60
:1018B0008A95E2F7C695C69580E2C89FE00111249B
:1018C000C22BD32BDC6853CFC11539E5D307A8F45D
:1018D000C11548E5D40708F063C0C11586E5D807EF
:1018E00008F06ACF8C2F0E941E0BC82FD0E0DC2F8F
:1018F000CC27CC27DF71D0623ACFC1152AE5D207B9
:1019000008F453C0CE0190568115904208F054CF90
:101910008D2F8F710E941E0B90E0982F88278827AB
:101920009F719C012C2BE901E6CFC55AD0E0C1572D
:10193000DE4FC881D0E0D0641ACF2C2F2695269593
:10194000237040E2249F900111248C2F8370C1E00A
:10195000D0E002C0CC0FDD1F8A95E2F7C22BD32B5B
:10196000DD6805CFDC2FCC27C16FD06A00CFCE0158
:101970008370992721E030E002C0220F331F8A953F
:10198000E2F7C695C69540E2C49FE0011124C22B40
:10199000D32BDA68ECCEDC2FCC27C46FD06AE7CE2D
:1019A000DC2FCC27C06FD06AE2CE8C2F8F700E94C4
:1019B0001E0B34E0D695C7953A95E1F7CF709C2F72
:1019C000EC01D069D4CEC2EED0E0D1CEC0EED0E0F2
:1019D000CECEC6EED0E0CBCEC5E3D0E0C8CE80916F
:1019E0007902882331F010927902109278021092D5
:1019F0007702089580959091190398239093190385
:101A000008951092560210925502109254020895B1
:101A1000209153029091220256E0291302C080E0E7
:101A2000089530E0529FF001539FF00D1124ED5DB9
:101A3000FD4F7181761306C07081781303C07281E7
:101A4000741304C02F5F3F4F2770E7CF81E00895E4
:101A50008091530290912202981301C008958F5FE4
:101A60008770FACF292F983078F5863068F590E0A6
:101A700036E0239F800D911D1124682F677023E0AD
:101A8000969587952A95E1F7FC01EE0FFF1FE80F69
:101A9000F91FE65FFD4F50E040E080E0219130E02B
:101AA000062E02C0369527950A94E2F72170332757
:101AB000042E01C0220F0A94EAF7822B4F5F5F4F7A
:101AC0004330510559F7089580E00895292F983043
:101AD00098F5863088F590E036E0239F800D911DC3
:101AE0001124282F277041E001C0440F2A95EAF7FE
:101AF00023E0969587952A95E1F7FC01EE0FFF1FED
:101B0000E80FF91FE65FFD4F30E020E070E05191F3
:101B1000DF011197CB01022E02C0969587950A949A
:101B2000E2F7817081958527842385278C932F5F29
:101B30003F4F2330310559F7089592959F709630A5
:101B400091F058F4925F9F70923058F4803F19F0F2
:101B500030F4883E30F481E008959A5FF4CF843FFA
:101B6000D1F380E00895883EB0F3813FD1F7F3CF01
:101B70009C013A9521153F4150F5FC01EE27F1708B
:101B8000BC0166277270AC01442754709C01222767
:101B9000387094FF0EC080E1EF2B09F480E0672BD2
:101BA00009F08062452B09F08064232B89F080685E
:101BB000089581E0EF2B09F480E0672B09F0826043
:101BC000452B09F08460232B19F08860089580E08C
:101BD0000895CF93DF93682F81E06A3019F06D305C
:101BE00031F480E00E94770EDF91CF9108958091CB
:101BF000AF059091B00526E0FC01A9EAB5E001909F
:101C00000D922A95E1F7603E08F458C026E0FC01E9
:101C100011922A95E9F7C091AF05D091B00546E041
:101C200050E0BE0189EA95E00E9498339E01295A4E
:101C30003340892B41F1C90145E0969587954A9536
:101C4000E1F741E050E0BA0102C0660F771F8A95C4
:101C5000E2F7CB016091A7037091A803862B972B25
:101C6000B9016B5F7F4FE5E076956795EA95E1F7FF
:101C700002C0440F551F6A95E2F7842B952B909371
:101C8000A8038093A7032A5F3F4F4091A603642FC8
:101C900070E0C9010E941733481B463010F4240F2E
:101CA000311D211572E0370710F030E020E0275594
:101CB0003C4F3093B0052093AF0596CFF6E06F9F71
:101CC000B00111246855784F46E050E00E948F33F0
:101CD000A2CFCF93DF93EC01FE018491811103C069
:101CE000DF91CF9108950E94E90D2196F5CFCF9312
:101CF000382FE091AF05F091B005E95AF3402091FB
:101D0000A603622F70E0CF010E941733281B822F99
:101D1000332361F066E00E946233C82FC15010F493
:101D2000CF91089580E20E94E90DF8CF9F01280F1E
:101D3000311D2115324018F080E0F0E0E0E08E0F18
:101D40009F2F911D87559C4F9093B0058093AF05B1
:101D5000E7CF80936F03709371036093700380915A
:101D600097038430F9F48093E9008FEF9091E800B5
:101D7000815095FD06C095ED9A95F1F7000081110F
:101D8000F5CF8091E80085FF0DC050E040E063E0B2
:101D900070E08FE693E00E94FA068091E8008E776B
:101DA0008093E8000895BC0184E00E94A90E089584
:101DB000BC0183E00E94A90E08959C0184E08093F9
:101DC000E9009FEF8091E800915085FD06C085ED08
:101DD0008A95F1F700009111F5CF8091E80085FF19
:101DE0000CC050E040E066E070E0C9010E94FA06D5
:101DF0008091E8008E778093E8000895CF93DF9379
:101E0000EC01809139018823B1F180916D0387FF46
:101E100032C060E284E08093E9008FEF9091E800A7
:101E2000815095FD06C095ED9A95F1F7000081115E
:101E3000F5CF8091E80085FF1BC08091390170E0EB
:101E400050E040E0811104C050E040E068E070E004
:101E5000CE010E94FA068091E8008E778093E80018
:101E600080E2FE01A5E7B3E001900D928A95E1F7CB
:101E7000DF91CF91089568E081E0CDCF019708F41C
:101E80000895EFE9FFE03197F1F700C00000F6CFC9
:101E9000B0E0A0E0EEE4FFE00C9433337C015B01A2
:101EA0006A0180919B0201E010E08A3010F40AE0A0
:101EB00010E0C1E0D0E0B501C701F601099581113C
:101EC00004C021960C171D072CF4CDB7DEB7EAE04D
:101ED0000C944F33CC9F9001CD9F300D300D1124C9
:101EE00090E080E045E34A95F1F700000196821703
:101EF0009307C1F7E0CF80918502811110C08091D6
:101F0000D80080618093D8008AE18A95F1F700C0FB
:101F10008091D90080FF0AC081E08093850281E032
:101F200090918502913009F080E0089582E08093DD
:101F300085020E94AA0610929703F1CF0E947B0FA0
:101F4000882359F0E0916403F0916503309729F0FC
:101F50000190F081E02D0995089580E00895B0E0AA
:101F6000A0E0E5EBFFE00C9435336C017B0164E607
:101F700070E088E70E947530EC0197FD12C010E018
:101F800000E0F601E00FF11F849164E670E00E942A
:101F9000E130EC01892B29F40F5F1F4F0E151F054F
:101FA00081F70E945731CE01CDB7DEB7E8E00C943F
:101FB00051338091170390911803911103C091E060
:101FC00089270895882369F062E070E087E496E04D
:101FD0000E94AF0F892B19F080911703089510927A
:101FE000170380911703EBCFCF93C0911703809114
:101FF00018038823D1F00E944308605A75418F4F1F
:102000009F4F609313037093140380931503909371
:102010001603C11108C062E070E085E496E00E94FA
:10202000AF0F892B29F0C09117038C2FCF91089502
:1020300081E080931703F7CF0F931F93CF93DF9324
:102040000AE313E0C7E6D2E0CE010E945436F8015D
:1020500081938F012196CB38F2E0DF07A9F7C3E522
:10206000D5E0FE0185919491009711F0FC0109954E
:102070002C96F6E0CF34DF07A1F7DF91CF911F91C7
:102080000F9108950F931F93CF93DF93863030F510
:10209000683020F5463010F5C42FD0E0CC0FDD1F9E
:1020A0002CE0629FC00DD11D112430E6839FC00D2E
:1020B000D11D1124CE0187960E945436082F10E0BE
:1020C000102F0027CE0188960E9454369801282BA5
:1020D000C901DF91CF911F910F91089590E080E0A9
:1020E000F8CF462F2091110330911203232B99F43E
:1020F000703F39F4603F79F480910F0390911003A1
:102100000895863040F4783030F4663020F4672F3C
:102110000E944210089590E080E00895CF92DF92EF
:10212000FF920F931F93CF93DF936C010091A50350
:1021300080917A02082BC7E0D0E010E0FC2EC801A5
:102140000C2E02C0959587950A94E2F780FD0CC08D
:102150002197A0F7F12C8F2DDF91CF911F910F9137
:10216000FF90DF90CF900895B6018C2F0E947110E0
:102170000E94610B019761F3EECFCF93DF93EC01E7
:102180000E948E10BE010E9471100E94610BDF91AF
:10219000CF910895FC0183819481892B29F080815E
:1021A000918189238F3F11F480E00895808191818E
:1021B0000E94BD100E949D0D0895A5E0B0E0E3EEE1
:1021C000F0E10C943A3349835A8389819A816623DA
:1021D00099F0222389F00E948E10182F682F898190
:1021E0009A810E94660D69817A81812F0E94711007
:1021F0002596E3E00C9456330E94320D182FF3CF4E
:1022000083E290E00E945436863789F484E290E0BD
:102210000E945436853159F485E290E00E9454368C
:1022200091E0823009F090E0892F8170089580E07C
:10223000FCCFCF9384E090E00E945436C82F82E216
:1022400090E00E945436982F8C2FCF910895DB0197
:10225000FC013296259134914217530758F0FC0146
:10226000349665917491A901CD010E94A53390E047
:1022700080E008958FEF9FEF08950F931F93CF9302
:10228000DF930AE313E0C7E6D2E0CE010E945436A2
:10229000F80161918F01681719F0CE010E94623632
:1022A0002196CB38F2E0DF0781F7DF91CF911F91C4
:1022B0000F910895DA019C012E5F3F4FF90145917E
:1022C0005491F90125913491A217B30758F0FC01FC
:1022D0003496859194910E94A5330E943D1190E01F
:1022E00080E008958FEF9FEF0895CF93DF93CBE8C1
:1022F000D2E060E0CE010E9462362196C11584E0F2
:10230000D807B9F7DF91CF9108951F93CF93DF934B
:10231000122F8630E0F46830D0F44630C0F4C42F79
:10232000D0E0CC0FDD1F9CE0699FC00DD11D1124B2
:1023300090E6899FC00DD11D1124632FCE01879691
:102340000E946236612FCE0188960E946236DF912C
:10235000CF911F910895CF93C82F6FEF811166E73A
:1023600083E290E00E9462366FEFC11165E184E282
:1023700090E00E9462366FEFC11162E085E290E06A
:102380000E946236CF910895CF93C92F682F84E0C1
:1023900090E00E9462366C2F82E290E00E946236EA
:1023A000CF910895A4E0B0E0E8EDF1E10C94393369
:1023B00040919702509198026091990270919A020F
:1023C0002FB7F8948091690390916A03A0916B03F1
:1023D000B0916C032FBF841B950BA60BB70B11E0BC
:1023E00084369105A105B10590F10E947B0F8823E9
:1023F00099F10E9443086E5F7F4F8F4F9F4F698313
:102400007A838B839C838091110190911201825772
:102410009D4F4091100150E04530510510F044E0CF
:1024200050E0BE016F5F7F4F0E94A53382E090E0D5
:102430000E94A132182F882351F00E944308609314
:102440009702709398028093990290939A02812F39
:102450002496E4E00C9455330E94430800919C02BA
:1024600010919D0220919E0230919F02600F711F7A
:10247000821F931FC0CFEF92FF921F93CF93DF93E2
:1024800000D000D00F92CDB7DEB77B0190E080E0A6
:102490000E94A132182F882309F487C040910301BC
:1024A00050E04115510511F041E050E06091040108
:1024B0007091050162577D4FCE0105960E94A533AC
:1024C00040918A0250918B0260918C0270918D0232
:1024D0002FB7F8948091690390916A03A0916B03E0
:1024E000B0916C032FBF841B950BA60BB70B8436E2
:1024F0009105A105B10540F48FE892E00E94930692
:102500009D81891709F451C081E090E00E94A132B9
:1025100081111AC010E08091860290918702A091EB
:102520008802B0918902F70180839183A283B383EB
:10253000812F0F900F900F900F900F90DF91CF9100
:102540001F91FF90EF90089540910B0150E04530AE
:10255000510510F044E050E060910C0170910D01C4
:1025600062577D4FCE0101960E94A5338FE892E01D
:102570000E9493069D818913CDCF0E9443086093EA
:102580008A0270938B0280938C0290938D028981D2
:102590009A81AB81BC818093860290938702A0933D
:1025A0008802B093890211E0B6CF80918F0290919A
:1025B0009002A0919102B091920289839A83AB8399
:1025C000BC831111E4CFA7CF1F920F920FB60F92C9
:1025D00011242F933F934F935F936F937F938F9328
:1025E0009F93AF93BF93EF93FF938091E10082FF9E
:1025F00009C08091E20082FF05C08091E1008B7FDD
:102600008093E1008091DA0080FF24C08091D8009F
:1026100080FF20C08091DA008E7F8093DA00809165
:10262000D90080FF9DC080E189BD82E189BD09B4E8
:1026300000FEFDCF81E080939703809172038111AA
:1026400009C00E94AA060E9475078091E20084607A
:102650008093E2008091E10080FF17C08091E2004A
:1026600080FF13C08091E2008E7F8093E200809112
:10267000E20080618093E2008091D80080628093C4
:10268000D80019BC85E0809397038091E10084FF16
:102690002BC08091E20084FF27C080E189BD82E1E8
:1026A00089BD89B5982F917080FFFBCF8091D800AC
:1026B0008F7D8093D8008091E1008F7E8093E10030
:1026C0008091E2008F7E8093E2008091E200816041
:1026D0008093E20080919803882309F447C084E046
:1026E00080939703809197038091E10083FF27C037
:1026F0008091E20083FF23C08091E100877F809377
:10270000E10082E080939703109298038091E100AA
:102710008E7F8093E1008091E2008E7F8093E200C3
:102720008091E20080618093E20042E060E080E01E
:102730000E9443078091F00088608093F000FF9131
:10274000EF91BF91AF919F918F917F916F915F9129
:102750004F913F912F910F900FBE0F901F901895A2
:1027600019BC109297031092720374CF8091E3000A
:1027700087FD93E090939703B5CF78941F921FB68F
:102780001F9211248F939F93AF93BF9380916903FE
:1027900090916A03A0916B03B0916C030196A11D07
:1027A000B11D8093690390936A03A0936B03B09368
:1027B0006C03BF91AF919F918F911F901FBE1F908F
:1027C00018959C014FB7F8948091690390916A0322
:1027D000A0916B03B0916C034FBF821B930B0895C4
:1027E0002FB7F8948091690390916A03A0916B03CD
:1027F000B0916C032FBF08950E94F0139C0190913B
:102800000B0380910C03982B21F030930803209345
:10281000070390910D0380910E03982B21F03093C4
:10282000060320930503E0916403F091650330975C
:1028300049F082E0809309030480F581E02D89E06E
:1028400093E009950895ACE0B0E0E9E2F4E10C947E
:1028500030338E010F5F1F4F88E0D8011D928A959B
:10286000E9F782ECC82E81E0D82EF12CE12CAA24C5
:10287000A394B12C2CEC822E21E0922EF6018191B2
:102880006F018F3F09F442C0F894E82FE295EF7092
:10289000F0E021A18F70A50102C0440F551F8A9559
:1028A000E2F7CA01922F982B91A392A180958923D8
:1028B00082A3789400C0E6ECF1E0712C31E0219124
:1028C0002F3F09F46BC0A22FA295AF70B0E0909695
:1028D0008C9190E02F7002C0959587952A95E2F72C
:1028E00080FD5CC0832F782A330F8E169F0639F740
:1028F000F601319780818F3F11F00E94070B50EA5B
:102900005A95F1F7F801EE0DFF1D70828FEFE81A6E
:10291000F80AA4E0EA16F10409F0B0CF48E050E06C
:10292000B80180EA92E00E949833009741F028E0D5
:10293000F801A0EAB2E001900D922A95E1F700912A
:10294000A902892B69F181E080937D020E94F01336
:1029500090937C0280937B0280917B0290917C0219
:102960000E94E113059700F110E006501D4F44E06E
:1029700050E060EA72E0C8010E949833B12C892BC4
:1029800051F084E0E0EAF2E0D80101900D928A95DE
:10299000E1F7BB24B39410927D0207C080E0A3CF7F
:1029A00080917D028111D8CFB12C0E947B0FF82E2F
:1029B000E091A902882309F472C019861A861B8641
:1029C0001C860E2F10E006501D4F80919B028A300E
:1029D00088F54BE352E1BE01675F7F4FC8010E945B
:1029E000480F882309F44AC042ED51E1BE01675FF8
:1029F0007F4FC8010E94480F882309F43FC01092FE
:102A00009B028091A80290E044E050E0BE01675F25
:102A10007F4F86509D4F0E94983321E0209384027F
:102A2000892BF1F4F12C1F2D812F8B292C96EDE0B1
:102A30000C944C3380917E0290917F020E94E113AE
:102A4000843F914030F680918402882359F3FE013F
:102A5000399684E0DF011D928A95E9F7109284028D
:102A6000E091A802F0E0E650FD4F89859A85AB859C
:102A7000BC8580839183A283B383D5CF80919B0251
:102A80008F3F31F08F5F80939B028A3008F4B9CF7B
:102A90000E94F01390937F0280937E02D4CFF0E0E7
:102AA000E650FD4F84E0AFE8B2E001900D928A95C8
:102AB000E1F78FE892E00E94930680938E02C09027
:102AC0009302D0909402E0909502F090960280914B
:102AD000800290918102A0918202B0918302C81677
:102AE000D906EA06FB0611F410E09ECFC0928002E0
:102AF000D0928102E0928202F09283020E947B0FC8
:102B0000182F8111F1CF0E944308C61AD70AE80A8C
:102B1000F90AC0929C02D0929D02E0929E02F0922D
:102B20009F0282CFCF93C82F80916E0382FF0CC08B
:102B3000809179028C1741F00E94F01390937802F3
:102B400080937702C0937902CF91089580913C03DE
:102B500090913D03892B89F00E94F0132091770218
:102B600030917802AC01421B530B81E020913C0371
:102B700030913D034217530708F480E081700895B7
:102B8000809119039091A103892B8093E601809194
:102B90007902882319F180913C0390913D03892BA0
:102BA00029F00E94A61581110E94EF0C8091E60188
:102BB00090917902892B8093E601809139018823D5
:102BC000E1F180916D0387FF38C08EE1E8EEF1E01E
:102BD00090E08150A0F591110E94EF0C40E250E08E
:102BE00067E572E086EE91E00E949833892B21F12F
:102BF00080E2E6EEF1E0A7E5B2E001900D928A9561
:102C0000E1F7E0916403F09165033097A9F08091BA
:102C10003901882359F080916D0387FF07C08091A7
:102C2000E6018093E70186E08093E6010280F3816C
:102C3000E02D86EE91E00995089586E0C7CF2191B9
:102C4000222339F29F5FC5CF80913801877F80931F
:102C500038019091A1039D7F9093A10384FF08C048
:102C60008F7E8093380180911903826080931903CD
:102C70008091380185FF08C08F7D80933801809155
:102C800019038062809319030E94C015089590E093
:102C900080E00E94C40890E080E00E94AE0810929C
:102CA000A1030E94C01586E0E9E0F3E0DF011D9278
:102CB0008A95E9F71092030310920203109204031D
:102CC0000E94FC1308958093A5030E94471608955F
:102CD0008091A503982F9670963021F488600E9409
:102CE00063160895877FFBCF21E030E001C0220FFB
:102CF0008A95EAF720958091A50382230E946316A6
:102D00000895909156028095892380935602282F2A
:102D1000277091F4282F082E000C330B92171306FE
:102D200059F090916E0392FF07C085958595859522
:102D30000E9474160E94010D089590916E0392FBFB
:102D4000222720F9281769F080FB92F990936E03EF
:102D500080916D0390916E030E94C41182E00E94E5
:102D60008116089521E030E001C0220F8A95EAF72C
:102D70008091A503822B0E946316089590916E03A3
:102D800092FF10C098E0899F90011124622B6093FC
:102D900056020E94B2160E94F0139093550280933F
:102DA000540208950E94B216089580937A020E94F8
:102DB000471608951092190380913901E8EEF1E069
:102DC000882361F080916D0387FF08C08EE1DF01E9
:102DD0001D928A95E9F70E944716089586E0F7CF7D
:102DE000AAE2B0E0E6EFF6E10C943A3389E993E029
:102DF0002091F100DC012D93CD01B3E0813A9B07D6
:102E0000B9F780919A03833009F472C0B8F4813025
:102E100009F449C0823009F4B3C08091E80083FF0F
:102E200096C28091990390919A039A3008F08FC2CC
:102E3000E92FF0E0E856F94C0C9482338A3009F41B
:102E40008EC08B3009F471C0893039F780919903B5
:102E5000813219F780919D0390919E03009711F0A4
:102E60000297D9F68091E800877F8093E8008091EF
:102E7000E80082FF38C09091F3008091F200029741
:102E800031F48091F100813011F0863021F480918D
:102E9000F100809374038091E8008B778093E800C1
:102EA0000E942407BACF80919903813A09F0B5CFE7
:102EB0008091E800877F8093E80080919D03909146
:102EC0009E03892B61F460E285E793E070E00E9445
:102ED000D0078091E8008B778093E8009ECF60E078
:102EE00090E080E0F3CF809197038111C0CF95CF20
:102EF00080919903813A09F090CF80919D03909140
:102F00009E03892B09F089CF8091E800877F809309
:102F1000E8008091E80080FFFCCF80913901809328
:102F2000F1008091E8008E77B9CF809199038132CA
:102F300009F073CF80919D0390919E03892B09F036
:102F40006CCF8091E800877F8093E8000E9424077F
:102F500080919B03809339010E94DA165ECF8091A5
:102F60009903813209F059CF8091E800877F8093DF
:102F7000E8000E94240780919C03809373034DCF47
:102F800080919903813A09F048CF8091E800877FCA
:102F90008093E8008091E80080FFFCCF809173036C
:102FA000BECF803899F0823809F0D1C180919D035D
:102FB0008F70873008F0CBC18093E9008091EB00DF
:102FC00085FB882780F91092E90006C0809195035F
:102FD00090919603911182609091E800977F909371
:102FE000E8008093F1001092F1008091E8008E7764
:102FF000AAC1882309F498C1823009F0A8C1809140
:103000009B0381119BC180919D038F702FEF280F2F
:10301000263008F09CC18093E9002091EB0020FF4E
:103020008DC1933031F48091EB0080628093EB008E
:1030300085C19091EB0090619093EB0021E030E02E
:1030400001C0220F8A95EAF72093EA001092EA0065
:103050008091EB008860EACF811179C110919B03C8
:103060001F778091E3008078812B8093E30080912B
:10307000E800877F8093E8000E9424078091E800A1
:1030800080FFFCCF8091E30080688093E30082E0C2
:10309000111183E0809397035AC18058823008F061
:1030A00056C120919B0330919C032C3DE3E03E07E9
:1030B000A1F583E08A838AE289834FB7F894DE0121
:1030C000139620E03EE051E2E32FF0E050935700EA
:1030D000E49120FF03C0E295EF703F5FEF708E2F09
:1030E00090E0EA30C0F0C7968D939D932F5F243116
:1030F00059F74FBF8091E800877F8093E8006AE22C
:1031000070E0CE0101960E94D0078091E8008B7795
:103110008093E8001CC1C096E7CF80919D039091F9
:103120009E03432F55274330510509F44AC078F5D3
:103130004130510509F485C08BE590E0E9E4F6E003
:103140004230510509F003C12091E800277F209308
:10315000E80020919F033091A0038217930708F4A1
:103160009C0140E02115310509F070C041116EC08D
:103170008091E80082FDC9CF80919703882329F2CE
:10318000853019F28091E80083FFF2CFBECF413243
:10319000510509F447C04232510509F0D8C08330C7
:1031A000910508F0D4C0FC01EE0FFF1FE952FE4F5D
:1031B0000190F081E02D8C529E4FDC018C9190E0CB
:1031C0001DC0332721303105E9F02115310579F093
:1031D00022303105F9F02330310509F0B8C0E6EBB3
:1031E000F6E0E4918E2F90E0E6EBF6E007C0E4EF26
:1031F000F6E0E4918E2F90E0E4EFF6E0009709F41A
:10320000A6C0A2CFE2EEF6E0E4918E2F90E0E2EECF
:10321000F6E0F4CFE4EDF6E0E4918E2F90E0E4EDFB
:10322000F6E0ECCF8330910508F091C0880F991F2C
:10323000FC01E352FE4F0190F081E02D89E090E027
:1032400083CF82E190E0E4EAF6E07ECF80919703BD
:10325000882309F45ACF853009F457CF8091E800CC
:1032600083FD53CF8091E80082FD82CF8091E800FA
:1032700080FF78CF9091F3008091F2002115310505
:1032800019F08830910550F041E0089709F040E0CE
:103290008091E8008E778093E80064CF449140935A
:1032A000F1003196215031090196E8CF803809F0BC
:1032B0004EC08091E800877F8093E800809198035A
:1032C0008093F10092CE811142C010919B03123085
:1032D000F0F58091E800877F8093E80010939803D1
:1032E0000E942407112311F084E005C08091E300BF
:1032F00087FDFACF81E08093970342E061EC81E0A3
:103300000E94430742E261EC84E00E94430742E2EC
:1033100061EC82E00E94430742E260EC83E00E949D
:1033200043078091970313C080919B03813079F408
:1033300081E0933009F080E0809396031092E900D9
:103340008091E800877F8093E8000E9424078091A5
:10335000E80083FF0AC08091E800877F8093E8003F
:103360008091EB0080628093EB00AA96E3E00C94DE
:1033700056331F920F920FB60F9211242F933F9343
:103380004F935F936F937F938F939F93AF93BF936D
:10339000CF93DF93EF93FF93D091E900DF7080919B
:1033A000EC00C82FC17080FDC0E81092E900809148
:1033B000F000877F8093F00078940E94F0161092BE
:1033C000E9008091F00088608093F000CD2BCF70F1
:1033D000C093E900FF91EF91DF91CF91BF91AF9141
:1033E0009F918F917F916F915F914F913F912F911D
:1033F0000F900FBE0F901F901895EAE3F3E0128E26
:10340000138E8FEA90E09183808325E0248F88E8F3
:1034100093E19383828384E690E09583848340E103
:1034200050E05783468368E070E0718760874AE028
:1034300050E05387428748E250E05587448797879A
:10344000868742E350E0518B408B738B628B958B68
:10345000848B578B468B88EC90E0918F808F158EF4
:10346000178E168E80E590E091A380A322A30E9480
:103470003D110E94DA1610926E0310926D03EEE673
:10348000F3E080818460808380916D0390916E036E
:103490000E94C4110E941C100895B0E0A0E0E3E572
:1034A000FAE10C943233A0902C01B0902D0181E010
:1034B00090E090932D0180932C0199ECC92E93E01C
:1034C000D92ED0E0C0E07601912C1DC021E030E083
:1034D000C430D1053CF4F801EE0FFF1FEE0DFF1DC7
:1034E00025913491402F692D8C2F0E9485110F5FFB
:1034F0001F4F0630110551F78CE0E80EF11C939434
:1035000088E0981619F010E000E0E0CF219680E600
:10351000C80ED11CC630D105B1F60E94FD19B0927B
:103520002D01A0922C01CDB7DEB7EBE00C944E3309
:1035300080E00E94AB1160E086E290E00E9462367B
:103540000E944D1A0E94751181E00E94AB110895EE
:1035500068EE7EEF90E080E00E94803660E082E0DE
:1035600090E00E94623660E083E090E00E94623664
:1035700010927A0260E084E090E00E94623664E09B
:1035800082E290E00E94623660E085E090E00E9476
:10359000623660E086E090E00E9462366FEF87E07E
:1035A00090E00E94623640E050E0BA0188E090E08E
:1035B0000E94743660E08DE090E00E94623640E048
:1035C00050E0BA0188E190E00E94743660E087E143
:1035D00090E00E94623640E050E0BA018CE190E059
:1035E0000E94743670E060E080E290E00E948036D5
:1035F00040E050E0BA0188E190E00E94743680E03B
:103600000E94AB110E94981A40E050E0BA018FE08E
:1036100090E00E94743640E050E0BA0183E190E00F
:103620000E9474360895CF92DF92EF92FF928FEF4F
:103630009FEF4430510508F46AC0FB01C080D1807F
:10364000E280F3800E94DA1680916D03C0FA80F95F
:10365000B701A601769567955795479540FB81F987
:10366000B701A60122E076956795579547952A956B
:10367000D1F740FB82F9B701A60133E07695679553
:10368000579547953A95D1F740FB83F9B701A601C5
:10369000E4E07695679557954795EA95D1F740FB15
:1036A00084F9B701A601F5E076956795579547959A
:1036B000FA95D1F740FB85F9B701A601A6E076950A
:1036C000679557954795AA95D1F740FB86F9B701BD
:1036D000A601B7E07695679557954795BA95D1F7C6
:1036E00040FB87F980936D0380916E03D0FA80F9D7
:1036F000D1FACC24C0F8C0FA81F980936E0380918E
:103700006D0390916E030E94C41190E080E0FF90E1
:10371000EF90DF90CF9008950E94DA162FEF84E3A8
:103720009CE0215080409040E1F700C0000088E11B
:103730009AE00FB6F894A895809360000FBE90931E
:103740006000FFCF882341F080959091A1038923E9
:103750008093A1030E94C0150895882339F09091A9
:10376000A103982B9093A1030E94C015089588236C
:1037700021F00E94FA0C0E94C0150895882339F0A8
:1037800090911903982B909319030E94C0150895E6
:10379000882391F19CEF980F913A40F4682F86EEC0
:1037A00091E00E944F080E94C015089590E2980F82
:1037B000983050F4877091E001C0990F8A95EAF72C
:1037C000892F0E94FA0CEFCF9BE5980F933028F4D5
:1037D00090E080E00E94C408089598E5980F973122
:1037E00028F490E080E00E94AE080895803F20F029
:1037F0000E9482090E94FC130895CF93DF93EC018D
:103800000E94C81BCE010E94B80D9E01205E3109A6
:103810002830310510F0CD2B29F40E94B71BDF9121
:10382000CF9108950E94A21BFACFCF93C82F88236F
:10383000D9F18CEF8C0F813AC8F58091390188233A
:1038400011F180916D0387FF1EC0EC2FE695E69580
:10385000E695F0E0EA51FE4F828190E04C2F4770F0
:1038600021E030E002C0220F331F4A95E2F78223A5
:103870009323892B91F06C2F86EE91E00E944F08E4
:103880000E94C0150AC0E8EEF1E08EEE91E02191B1
:10389000C21789F38E179F07D1F76C2F86EE91E040
:1038A0000E9479080E94C015CF91089580E28C0F84
:1038B000883068F4C77021E030E001C0220FCA955B
:1038C000EAF780911903822B80931903EBCFEBE584
:1038D000EC0FE33040F4F0E0E157FE4F808190E0E0
:1038E0000E94C408E1CFE8E5EC0FE73150F4F0E0C6
:1038F000EE0FFF1FEE56FE4F808191810E94AE08B1
:10390000D3CFC03F88F28C2F0E949D0A0E94FC13E7
:10391000CBCF1F93CF93DF93182FC0915A03D09131
:103920005B03893321F0C0915803D0915903812F53
:103930000E94151C209739F4812F0E94C81BDF912B
:10394000CF911F9108958FE99FE00197F1F700C093
:1039500000002197EFCF0F931F93CF93DF93C62FD4
:10396000D42F022FFC0182818823A9F06093A40345
:103970000E94F0139093A3038093A203C77081E089
:1039800001C0880FCA95EAF70E94BE1BDF91CF9154
:103990001F910F9108958091A403681332C0809104
:1039A000A2039091A3030E94E113883C910548F57E
:1039B00010E21D0FCD17B9F080E28C0F883040F473
:1039C000C77081E001C0880FCA95EAF70E94B71B53
:1039D000183048F481E09D2F977001C0880F9A95A8
:1039E000EAF70E94BE1B802F0E94891C183070F6D7
:1039F000D77081E001C0880FDA95EAF70E94B71B03
:103A0000C5CFC77081E001C0880FCA95EAF7F6CF2D
:103A1000B0E0A0E0EEE0FDE10C943333EC018AE08D
:103A2000A82E2881222309F48FC02130C9F599815D
:103A30008A81913021F422960E94891C05C092301F
:103A400029F422960E94151C2196EBCF933021F485
:103A500022960E94C81BF8CF943011F02196F4CF23
:103A6000229630E020E0AE014F5F5F4F8053990B0C
:103A70008A30910550F02150310930F38FE99FE0F1
:103A80000197F1F700C00000F6CFA29EB001A39EFF
:103A9000700D11249C01260F371F8981EA01E3CFA5
:103AA000E22FF0E0E85DF84FB490822F869586957E
:103AB000869590E0FC01E85EF84FE4902770F12CC9
:103AC000022E02C0F594E7940A94E2F731E0E32273
:103AD000FF24FC01E85FF84FC490D12C022E02C0F5
:103AE000D594C7940A94E2F731E0C322DD24FC01A7
:103AF000E850F94F049110E002C0159507952A95FA
:103B0000E2F701701127E114F10419F081EE0E942F
:103B1000151CC114D10419F086EE0E94151C8B2DC2
:103B20000E94891CC114D10419F086EE0E94C81BA2
:103B3000E114F10419F081EE0E94C81B0115110572
:103B400009F482CF8CE278CFCDB7DEB7EAE00C94EF
:103B50004F33CF93DF93EC010E94B80D9E01205E9E
:103B600031092830310510F0209741F40E94BE1B26
:103B70008C2F0E94151CDF91CF9108950E94AD1BE0
:103B8000F7CF662329F02091A10322602093A1039F
:103B90009C013056211540E2340720F0305E21159B
:103BA000304108F499270E94A91D0895B0E0A0E0D3
:103BB000ECEDFDE10C9436337C018B01D42E809129
:103BC000380182FF8CC0C0916003D0916103CE1593
:103BD000DF0521F0E114F10409F081C08091380182
:103BE0008B7F8093380181FD73C080915E0390913B
:103BF0005F03A801481B590B81E0209136013091E9
:103C000037014217530708F480E08170F82E809145
:103C10003801F0FA81F980933801FE0183E0F695CE
:103C2000E7958A95E1F7EE71FF27E65EFC4F20816C
:103C30003181AE014F70552781E090E002C0880FBE
:103C4000991F4A95E2F7FF2009F444C0822B932B79
:103C5000918380838091190381FF08C0809138018E
:103C600080618093380182E00E94FA0C80911903F0
:103C700085FF08C08091380180628093380180E21E
:103C80000E94FA0C6F2DCE010E94C11DDD2031F083
:103C90008091550385FF02C086FF3BC08091580389
:103CA000909159030E943E0F8091600390916103AF
:103CB0009C013056211540E2340720F0305E21157A
:103CC000304108F499270E94FD1B0E9424161DC054
:103CD00081E09BCF8095909582239323B9CFC70134
:103CE000992797013056211540E2340728F0305EBD
:103CF0002115304108F0C7010E94FD1B809160032F
:103D0000909161038E159F0501F310935F0300935B
:103D10005E03CDB7DEB7E7E00C945233A7E1B0E025
:103D2000E4E9FEE10C943A334B8B5C8B6D8B7E8B1C
:103D30008F8B8E899F89892B29F0CA0189238F3F18
:103D400009F0A1C08D8981111092A1031A8A198AE4
:103D500085E0FE017396DE011D9601900D928A9515
:103D6000E1F780916E0382FF1EC080913C03909129
:103D70003D03892BC1F00E94F01320915402309131
:103D80005502821B930B20913C0330913D03821717
:103D9000930720F08091560282FF71C00E94A61501
:103DA00081110E94EF0C86E0FE013D96DE01179620
:103DB00001900D928A95E1F7CE0107960E94642743
:103DC000882359F016E080915302909122028913C2
:103DD00043C06796E3E00C94563386E0FE013796C5
:103DE000DE01119601900D928A95E1F78A859B85F7
:103DF000892B41F388859F8189238F3F19F3209177
:103E0000220230E0C9010196877099274091530240
:103E10004817190671F40E94DA16109222021092C5
:103E2000530286E0ECE1F2E0DF011D928A95E9F7AA
:103E3000C9CF96E0929FD001939FB00D1124AD5D44
:103E4000BD4FFE01319601900D929A95E1F7809356
:103E500022020E94280DB6CF819FC00111248D5DE2
:103E60009D4F0E946427882309F4B3CF80915302A9
:103E700090E001968770992780935302A4CF82E047
:103E80000E9481168BCF80910802909109020196C1
:103E9000909309028093080255CFA5E0B0E0E3E5D6
:103EA000FFE10C943B339093100380930F03811533
:103EB00020E2920730F40E94FD1B2596E2E00C946C
:103EC000573380EF89838A831B820E94F0138160BD
:103ED000782F9D838C8349815A816B818D810E94CB
:103EE0008E1EEBCFA5E0B0E0E8E7FFE10C943B339A
:103EF0009093100380930F03811520E2920730F412
:103F00000E94A91D2596E2E00C94573380EF898327
:103F10008A8381E08B830E94F0138160782F9D83D8
:103F20008C8349815A816B818D810E948E1EEACFDC
:103F3000A4E0B0E0EEE9FFE10C9431337C01FC0138
:103F400083819481892B39F040815181842F85238D
:103F50008F3F09F018C72496ECE00C944D33C8014C
:103F600082519F45409708F079C68FEF93E00E94F9
:103F700054368111AEC06EEED62ED00E0BE812E094
:103F8000D11036C019821A821B821C8299249A94FD
:103F900068012FEFC21AD20AC8010E9454368983E1
:103FA0001A82882309F495C0813009F087C058012E
:103FB00032E0A30EB11CC6010E945436C82E8A837B
:103FC000882309F486C0C5010E945436D82E8FEF8D
:103FD0008C0D8330D8F4580143E0A40EB11CDB8271
:103FE000DD2021F0CE0101960E94081D8501D0CF71
:103FF0000115F4E01F0709F46CC0C8010E94543693
:10400000811101C0DA940F5F1F4FBACF8BEF8C0D77
:10401000833070F5C8010396DB825C01DD2031F34B
:10402000580154E0A50EB11C0E9454368C8388239D
:10403000E9F20B811C8101306FEF160710F0102F91
:10404000002776E0C71681F087E0C81649F0C8015E
:104050000E94721F80915803909159030E943E0F55
:10406000C8010E944D1FC2CFC8010E94721FBECF5F
:1040700094E0C912BBCF5801E4E0AE0EB11CC801F8
:1040800003960E945436DD2021F1882311F18150DE
:10409000990B989E9001999E300D11244D2D415001
:1040A000550BCA01820F931F019708F49FCFEFE9C8
:1040B000FFE03197F1F700C00000F6CFCE01019686
:1040C0000E94081D560192CF81E00E94B2160E9404
:1040D000681680915602877009F43DCFF7018281FE
:1040E000882309F438CF80916E0382FF34CF82E0B9
:1040F0000E94811630CF81E00E947416E8CF82E0E2
:10410000E4CFC801C2C58091380181608093380135
:104110000EC6809138018E7F809338010E9424164C
:1041200006C6809138018F7E013E110531F0053EB3
:104130001105C1F4809138018F7D80933801809101
:10414000380180FF03C6F70182810832110528F586
:104150000E31110508F074C00430110580F581118D
:10416000F1C5F4C5C8019056811560E2960720F0AC
:10417000905E8115904118F78091380182FFE6C565
:104180008091570381FDE2C525EB32E040E0B601A6
:1041900090E080E00E94D61DD9C50933110558F47E
:1041A0000D32110518F40B321105C9F69091550323
:1041B00092FDD5CF08C004361105C1F3D0CF909140
:1041C000550394FDCCCF882309F49DC09091190329
:1041D00080917902282F292B322F3D7FB1F1109247
:1041E0006103109260033091550331FD2EC0F80138
:1041F00043E0F695E7954A95E1F7EE71FF27E65E15
:10420000FC4F98012F70332781E090E002C0880FA7
:10421000991F2A95E2F7809590952081318182231C
:1042200093239183808360E0C8010E94C11D809127
:1042300079028D7F0E94921582E00E94811649CFFB
:104240009091550393FD8BCFBECF36E0F701A5EBE0
:10425000B2E001900D923A95E1F71092B7021092F8
:10426000B9021092B802A0906003B09061030A15E1
:104270001B0591F53091550335FF2EC04091380153
:1042800041FB992490F841FF02C036FF25C04091C0
:104290005E0350915F03B601641B750B683C7105AA
:1042A000D8F491FF08C08091380180618093380173
:1042B00082E00E94FA0C8091190385FF08C080916A
:1042C000380180628093380180E20E94FA0C692DE7
:1042D000C5010E94C11DFDCE9091380121FB91F9CD
:1042E000909338018D7F0E94921510936103009383
:1042F0006003D0925F03C0925E03809138018460B6
:104300008093380199CF970140E0B601C8010E941F
:10431000D61DDFCE053F2CE5120709F45CC008F47A
:1043200056C0063F4CE5140709F459C0F701328125
:10433000332309F43FC51092A4030330FDE51F07A2
:1043400008F054C00A3F2CE5120730F4C80182502F
:104350009C45449708F056C00E94191190936E0333
:1043600080936D0302317CE5170709F49FC108F0C3
:10437000EFC009309CE5190709F476C108F0B9C00F
:104380000530FCE51F0709F463C108F0A0C0033045
:104390003CE5130709F454C108F056C180916D0340
:1043A000816002305CE5150709F4CFC080916D0390
:1043B00090916E030E94C4110E94DA168ACE27E201
:1043C00045EE65EEDCC426E241EE60EED8C427E29D
:1043D00045EE64EED4C426E241EE62EED0C427E29C
:1043E00045EE66EECCC428E241E0EBCF053A4DE560
:1043F000140709F4B1CF08F063C001366DE5160764
:1044000009F4AACF06312CE5120709F4D8C40A35FD
:104410007DE5170709F4A3C108F07CC101159CE5EF
:10442000190709F482C10E3D1C4509F48BC1F7013F
:10443000828100811181882309F495C1C8010E94FD
:104440008E10D82E682FC8010E94660DB8018D2DE0
:104450000E9471100E94610B182F092F882EF701FE
:10446000D280C580C2943FE0C322809156028770FB
:10447000C1F0AD2CDD20B1F0892F807F803421F098
:1044800080E2810F883068F080916E0382FF09C05E
:1044900082E00E948116809156028770AA24A3941C
:1044A0008111A12C902E92942FE09222FBE0F9151D
:1044B00008F4D6C1E92DF0E0EE55F94C0C948233A6
:1044C000C8018D5A9D45039708F09CCF45CF809138
:1044D0006D03806207306CE51607B9F180916D03BA
:1044E000806108307CE5170780F180916D0380645E
:1044F0002CC00D308CE5180709F4C0C090F48091F1
:104500006D038E7F0B30ECE51E07F9F080916D0393
:104510008C600C30FCE51F07C0F080916D038D7F2F
:1045200014C00F302CE5120709F4B8C008F4AAC073
:1045300000314CE5140709F4B5C080916D038F7B01
:1045400001315CE5150709F031CF80936D032ECF63
:104550000F3F6CE5160709F4B3C0A8F50A3F8CE5D8
:10456000180709F479C0C0F40431ECE51E0709F41A
:10457000B5C008F4A1C005312CE5120709F016CF2B
:1045800080916D0382FB992790F921E0922790FB9F
:1045900082F990FB83F9D9CF0C3F3CE5130709F46E
:1045A00075C008F45DC00D3F5CE5150709F472C0E5
:1045B00080916E0383600E3F6CE5160709F0F6CE1E
:1045C00080936E03F3CE01367DE5170709F491C0A1
:1045D00090F401309DE5190709F489C008F474C00E
:1045E00060E00230FDE51F0709F0E0CE8EE090E0CC
:1045F0000E946236DBCE0D3A2DE51207E9F060F439
:1046000090916D03892F8E7F90FF8160053A4DE573
:10461000140709F49ACFCACE0E3A5DE5150751F199
:104620000F3A6DE5160709F0C1CE90916E03892F00
:10463000877F93FF8860C4CF80916E038860C0CF6E
:1046400080916D03826081CF80916D0384607DCF06
:1046500080916D03886079CF80916E038160B0CFC7
:1046600080916E038260ACCF0E94DA1680916D0358
:1046700080686BCF80916E03877FA2CF80916D039E
:104680008B7F63CF80916D03877F5FCF80916E03B7
:104690008E7F96CF80916E038D7F92CF80916D0338
:1046A0008F7E53CF80916D038F7D4FCF0E94DA169E
:1046B00080916D038F7749CF80916D03837F45CFC4
:1046C00080916E038C7F7CCF80916E03982F9095A4
:1046D00091708E7F892B90FB81F972CF0E94DA1640
:1046E00090916D03892F97FB87F980582ECF61E059
:1046F0007DCF90916D03892F8F7E94FF806125CFB0
:104700008091060269E2811165E386EE91E00E94E4
:104710004F0882C30C35FDE51F07B9F010F1073AC9
:104720001D4509F084CE0E948C1B0E94DA164FEFC3
:1047300054E36CE0415050406040E1F700C000009D
:104740000E9432080E94A81AEECF80916E0382FB6D
:10475000882780F991E089270E949D1668CE81E024
:10476000FBCF80E0F9CFC8010E94320DD82E6ECE6B
:10477000202F2F70B22E802F807F19F0B29490EFEF
:10478000B922DD20B9F0BB2069F080E2810F8830CA
:1047900010F0811009C080911903B82AB092190352
:1047A0000E94C015812F5AC08091A103B82AB092EF
:1047B000A103F6CF812F0E94C81BBB2009F450C073
:1047C00080E2810F883010F0811004C08B2D0E9490
:1047D000FA0C06C0B0948091A103B822B092A10354
:1047E0000E94C0153DC0302F3F70B32E802F807FB8
:1047F000803219F0B29480EFB8228820F1F041E0C5
:10480000841609F4AFC0DD2009F4B8C0CC2009F447
:1048100080C020E0F70140815181628173818481F1
:104820000E94DD108091570381FDBCCFF701858187
:1048300080FFB8CF8F7085836CC080916E0382FD3E
:1048400048C0DD2009F43FC0BB2039F08091190336
:10485000B82AB09219030E94C01580E00E94151C6E
:10486000292D2850330B2430310510F40E949E0F5F
:10487000812F902F0E949D0D8111D1C110920902AC
:1048800010920802AA20A9F08091560280FD11C062
:10489000F70112828595859585950E94B216C7010C
:1048A0000E94981F809156028595859585950E9456
:1048B000741620E0F7014081518162817381848107
:1048C0000E94DD1048CB80E00E94C81BBB2041F253
:1048D0007DCFDD2011F1C11004C0809179028B29B8
:1048E00019C051E0C51206C0809179028B290E943F
:1048F0009215B6CF80915603823078F3C812EDCF6F
:104900000E94EF0C909107028B2D892B89138093C5
:1049100007028B2D0E94BE1BA3CFC11003C00E94B3
:10492000EF0C17C08091560361E0C61216C08230AA
:1049300008F496CF809119038B2109F491CF0E943E
:10494000EF0C909107028B2D80958923891380931A
:1049500007028B2D0E94B71B83CF823000F38C118E
:10496000DECF7ECF80915C03DD2021F08C1508F432
:1049700077CFCFCFC81608F073CFEBCFCC2049F359
:10498000F9E38F1244C180915A0390915B030E9416
:104990003E0F812F0E94C81B63CF802F869586957E
:1049A000837069F0813009F05BCF812F902F937075
:1049B000D11002C090E080E00E94AE0851CF812F5C
:1049C000902F9370D11002C090E080E00E94C40844
:1049D00047CF812FDD2029F00E949D0A0E94FC1301
:1049E0003FCF0E948209FACF802F837091F5D110BA
:1049F00037CF412F429546954770440F440F812F82
:104A00008F70042E01C0880F0A94EAF7212F2071BD
:104A100014FF07C02FE030E001C0220F4A95EAF7EB
:104A20002095302F369536953370323069F050F43A
:104A300040917A02313029F0822B84230E94D516CE
:104A40000FCF842B822BFACF282B80917A028227DA
:104A5000F5CF8695DD2011F0802F8170882309F431
:104A6000FFCE412F429546954770440F440F812F4A
:104A70008F70042E01C0880F0A94EAF7212F20714D
:104A800014FF07C02FE030E001C0220F4A95EAF77B
:104A90002095302F369536953370323069F050F4CA
:104AA0004091A503313029F0822B84230E946316A4
:104AB000D7CE842B822BFACF282B8091A503822777
:104AC000F5CF202F2F70B22EDD2029F0822F0E94EB
:104AD000B216812F1FCF812F0E94B71B8B2D0E94F2
:104AE0007416BECE812F32EF8316B1F1381570F0F7
:104AF00040EF8416D1F051EF851691F0DD2009F4D6
:104B000081C0C1104FCE802F8F712AC063EF8616EF
:104B100051F174EF8712F2CF80916E0382FD2FC0A6
:104B2000802F8F71DD20D9F21BC080915C03DD20C6
:104B300079F0C81608F094CE202F2F7181E090E014
:104B400001C0880F2A95EAF79091A5038927AECF77
:104B50008C1508F485CEF0CF802F8F71D110BFCF88
:104B60000E94B2167DCE80E0DD2009F49FCF81E067
:104B7000902F9F7101C0880F9A95EAF797CF809187
:104B80005603823038F1DD20C9F0909156029770BB
:104B9000943041F40E94010D802F8F710E94741691
:104BA000A12C5ECEC816E0F7802F8F71B82E0E9420
:104BB000B21663E08B2D0E94BE16F2CFC81630F0FD
:104BC0000E94010D64E0802F8F71F5CF81E00E947B
:104BD0008116E6CFDD2059F0902F9F71B92E892FD5
:104BE0000E94B21663E08B2D0E94BE1639CE81E082
:104BF0000E948116E1E0EC1508F032CE82E00E94BE
:104C000081162ECECC2041F0893309F4BCCE8091A0
:104C1000580390915903BBCE802F8F7160CFDD2058
:104C200019F0C1102BCE2ECEC11028CE20E0F701F6
:104C3000408151816281738184810E94DD10809165
:104C4000570383FF1BCE80910802909109020297BF
:104C500009F014CE812F0E94891C10CE0031FFE58F
:104C60001F0709F431CA01312FE5120709F447CAB9
:104C7000C8019056811520E2920728F0905E8115B8
:104C8000904108F03ECAC801992720E28C33910573
:104C900020F4FC01ED5AFE4F20811F922F939F9329
:104CA0008F93F70180811F928F9381811F928F9341
:104CB00082E491E09F938F931F9288E18F938BEB17
:104CC00092E09F938F930E94B5330FB6F894DEBFA6
:104CD0000FBECDBF8091550380FF38C00E94F013F6
:104CE0006C01F7018281882309F41BCA8091380185
:104CF00082FF08C025EB32E040E0B60190E080E0A2
:104D00000E94D61D0B31FCE51F0709F4FCC90C31CC
:104D10002CE5120709F4FDC990913801892F8E7F87
:104D200090FF81600A313CE5130709F4F5C9C80119
:104D30009056811540E2940728F0905E81159041CD
:104D400008F0FDC91092610310926003033F7CE5F7
:104D5000170709F438CB08F0DDCA083D9CE51907B0
:104D600009F42DCB093DECE51E0709F43CCB073DCA
:104D7000FCE51F0709F0DACA26E241EE61EEC70141
:104D80000E94AB1CA6C921E06281738184810E94CC
:104D9000DD108C01F70182818111E1C800313FE50E
:104DA000130709F4A8C901314FE5140709F092CFA0
:104DB00082E0A2C90631FCE51F0709F038CB8091DB
:104DC0001903982F9A7A2091540320FF04C0482F8A
:104DD000447409F090E021FF04C0482F417109F0AC
:104DE00090E022FF04C0482F487809F090E023FFAC
:104DF00003C0827209F090E0332309F481CC81E092
:104E0000911101C080E08093060269E2911165E38F
:104E100086EE91E00E9479080E94C0155AC91F933E
:104E2000CF93DF9380912102807F09F049C0809168
:104E30001E02882309F444C080915302D0912202BB
:104E400060911C0270911D02A0911F02B09120027E
:104E5000C62FC72316E0D81799F190E0109711F0EC
:104E6000CF3F19F401968770F6CF189F9001199FD4
:104E7000300D1124F901ED5DFD4F41814713F2CF53
:104E800040814613EFCF42814111ECCF43815481E1
:104E90004A1B5B0B483C510528F7809121028F701B
:104EA000806180932102F901E85DFD4F80818F7060
:104EB000806180838CE192E00E94981F0E94280DFF
:104EC000DF91CF911F910895A1E1B0E0EAE6F7E20A
:104ED0000C9431338C0185E0F801DE011D960190C0
:104EE0000D928A95E1F7D8019C9011968C901197BC
:104EF0001296EC9012971396CD90DC9020E04091A2
:104F00001C0250911D0260911E0270911F0280913F
:104F100020020E94DD108CE1A82E82E0B82E409184
:104F20001F02509120024115510509F43AC1909198
:104F30001C0220911D02892F82238F3F09F431C169
:104F4000F0901E02F601E41BF50BFF2009F4F6C0F9
:104F500080912102382F307FE83CF10508F0C0C075
:104F6000D80111964C91119731117BC0FE2C421340
:104F700015C02C91291312C0E11010C08F708061F0
:104F800080932102C5010E94981F80912102F8019F
:104F900085838F2D6196ECE00C944D33C114D104C0
:104FA00029F0892D88218F3F09F019C180E080FF09
:104FB00018C04E2D682D892D0E94080D882389F078
:104FC0008091570380FF0DC08CE192E00E94981FF2
:104FD00086E0ECE1F2E0DF011D928A95E9F7F12C21
:104FE000D8CFC114D10429F0892D88218F3F09F031
:104FF000F3C080E0B82FB170CB2E80FF29C04E2DBA
:10500000682D892D0E94080DD82E811121C09D8602
:105010008E868D859E850E94BD10292F22952F702A
:10502000223050F0243078F49F7051F0F8019581CF
:10503000907F31F4FD2CADCF9F7011F08823D1F318
:10504000805E8830B8F3C8010E94981FDC2CF2CF34
:10505000EE2009F49ECF809121028160809321028D
:10506000BECF421313C02C91291310C0E1100EC003
:1050700015968C93C8010E94981F86E0F801ACE158
:10508000B2E001900D928A95E1F783CFC8010E94AA
:10509000CA10882309F1EE20F9F0809121028032B4
:1050A00070F020911C0230911D0238872F831986E1
:1050B000DB86CA868C87CE0107960E94981F86E001
:1050C000F801ACE1B2E001900D928A95E1F70E94FF
:1050D0000F27FF24F3945DCFC8010E94981FF9CFDA
:1050E000332309F471CFF801318132130FC02081CD
:1050F00029130CC0E1100AC08583C8010E94981FC3
:1051000086E0D5011D928A95E9F743CFC8010E9438
:10511000CA10882309F3EE20F9F28091210280322F
:1051200070F220911C0230911D023A8329831B8268
:10513000DD82CC828E83CE010196BFCFE83CF105A3
:10514000F8F6FE2CEE2041F2F801818182131BC09B
:105150008081891318C08091570382FD8ECF909172
:10516000210290FD8ACF907F09F487CF80912102A0
:105170008583903F09F47ECF982F907F905F8F704A
:10518000892B858377CFC8010E94CA10811197CFE0
:1051900080912102816080932102C8010E94981FA2
:1051A000F8CEEE2009F498CFC8010E94CA10F82E5C
:1051B000882309F491CF86E0F801ACE1B2E00190D8
:1051C0000D928A95E1F780911C0290911D020E9438
:1051D000BD100E940F27DDCE81E08E250BCF81E030
:1051E0008E25E5CE1F921FB61F9211248F939F9399
:1051F000AF93BF9380916803811113C080916903BD
:1052000090916A03A0916B03B0916C034196A11D2C
:10521000B11D8093690390936A03A0936B03B093CD
:105220006C03BF91AF919F918F911F901FBE1F90F4
:105230001895CDB7DEB7E4970FB6F894DEBF0FBE72
:10524000CDBF85B7806885BF85B7806885BF84B7C7
:10525000877F84BF0FB6F894A8958091600088611D
:1052600080936000109260000FBE80E890E00FB65F
:10527000F89480936100909361000FBE85E09BE0FD
:105280009093E5018093E4010E941C100E94AA06FD
:105290000E9475078091E20084608093E200789418
:1052A000809197038823A1F01091E9001F709091DD
:1052B000EC00892F817090FD80E8182B1092E90096
:1052C0008091E80083FD0E94F0161F701093E900A2
:1052D00082E084BD93E095BD9AEF97BD80936E0008
:1052E00010929C0210929D0210929E0210929F02B8
:1052F0000E940011811102C00E94981A0E947B0F27
:10530000809318010E947B0F81110E94B53180911A
:1053100018018091180194E0811190E09093A90206
:1053200084E0891B8093A80284E90E94070B86E62B
:105330000E94070B87E90E94070B86EC0E94070B6F
:1053400006EC11E0D8018D918D018F3F11F00E9484
:10535000070BB1E00C3C1B07A9F788E0EAEFF2E08D
:10536000DF01282F1D922A95E9F7E0EAF2E0DF013C
:105370001D928A95E9F790E080E00E945C36883EB5
:105380009E4F21F40E940011811102C00E94A81AB0
:1053900082E090E00E9454368093AC020E94191182
:1053A00090936E0380936D030E942314EFE3FCE956
:1053B0003197F1F700C000000E9423140E947B0F78
:1053C000E4E08111E0E0F0E0E650FD4F808181FFF4
:1053D00008C06FEF7FEF90E080E00E9480360E946F
:1053E000320883E090E00E9454360E94D5160E9455
:1053F0007B0F8111B1C082E08093F30280E880933B
:10540000A6030E946F306DE070E08DED91E00E9488
:10541000AF0F892BE9F58091F30263E070E081FD25
:105420009DC08AED91E00E94AF0F892B89F56DE058
:1054300070E08AEC91E00E94AF0F892B49F50E9441
:105440004308605A75418F4F9F4F609313037093C9
:1054500014038093150390931603E9EAF3E080E0C8
:1054600092E0DF019C011D9221503040E1F7F09362
:10547000B005E093AF058FEF9FEF9093A803809363
:10548000A70381E080931803809317031092F4021E
:105490000E947B0F811102C00E94B83189E191E026
:1054A0009093650380936403CE0101967C01809103
:1054B000970300E112E1853009F48DC00E942314A6
:1054C000BDEACB2EB2E0DB2E1AEFA12E12E0B12EF8
:1054D000D501F60191918D9132E0E53BF30709F496
:1054E00084C09817B9F30E947B0F682E10E0D50195
:1054F0000D915D01F60171906F01701629F1702612
:10550000912C88248394872D8821B1F06620A1F006
:105510009EA61FA791E0802F882109F490E098AB08
:105520000E94F0138160782F9AAB89AB4EA55FA5DE
:1055300068A98AA90E948E1E9394880CF6E09F1297
:10554000E2CFF601319700831F5F183081F60E9489
:105550004308DD24D3946AC080E04ECF87ED91E00C
:1055600062CF80919703843031F10E94D90F10925D
:105570006803A8E1B0E0E0E40FB6F894A895A09322
:1055800060000FBEE093600083B7817F846083BFBB
:1055900083B7816083BF7894889583B78E7F83BFFC
:1055A0000FB6F894A89580916000886180936000A0
:1055B000109260000FBE80919603882361F00E94D4
:1055C0002314EAEFF2E0819181113CC522E033E03F
:1055D0002E173F07C1F780919703853009F4C1CF9B
:1055E0000E94DA160E949E0F69CF98137CCF0E940A
:1055F000F0138C018091AA029091AB020817190751
:10560000A1F08FEF89A78AA71BA60E94F0138160E3
:10561000782F9DA78CA749A55AA56BA58DA50E949B
:105620008E1E1093AB020093AA02D12C0E947B0F16
:10563000882311F18091550380FF1EC080913801AD
:1056400082FF1AC00E94F01320915E0330915F0325
:10565000AC01421B530B20913601309137014217A8
:10566000530750F025EB32E041E0BC01809160032C
:10567000909161030E94D61D80911803882351F1F7
:105680008091F5029091F6020E94E113C29708F012
:10569000C8C02091A7033091A8032115310509F056
:1056A0000EC1809117038823A9F00E94430800913E
:1056B0001303109114032091150330911603601BFE
:1056C000710B820B930B6F3F7F4F8F4F9F4710F4EF
:1056D0000E94D90FD1100E94F40F86E0E9E0F3E0B8
:1056E000D70101900D928A95E1F710920B03109269
:1056F0000C0310920D0310920E038B819C81892B59
:1057000091F080910703909108030E94E113AC018E
:1057100090910303992309F4A5C180913401841762
:10572000150608F4ADC18D819E81892B91F0809181
:105730000503909106030E94E113AC0190910203CE
:10574000992309F4DEC1809130018417150608F40D
:10575000E6C146E050E0B70189E093E00E9498334B
:10576000892B61F480910B0390910C03892B90910C
:105770000D03892B90910E03892B11F00E94FC13CD
:1057800086E0F701A9E0B3E001900D928A95E1F778
:105790000E949E0F9091F702891721F08093F702E3
:1057A0000E94430880919703843009F080CE83E003
:1057B0008093E9008091E80082FF79CE8091E80033
:1057C00090E085FF0AC00E94C90630E2C32ED12CAA
:1057D0008701882309F4EEC191E08091E8008B777E
:1057E0008093E800992309F462CE0091110310918F
:1057F000120389810115110509F4EAC18E3F09F0F0
:1058000029C28A81833020F08550833008F022C27B
:10581000EA81EE3008F01EC2F0E0E255F94C0C943B
:1058200082330E94F0139093F6028093F50289EA86
:1058300093E09093B0058093AF050E947B0F88237F
:10584000C9F185E092E00E94690EE091A503EF3076
:1058500060F4F0E0E454F94C0C9482338DEF91E065
:105860000E94690E81E00E94770E0BEB12E0D801D6
:105870000D900020E9F78D0101501109ABEBAA2E24
:10588000A2E0BA2EA016B10678F080911803882302
:1058900009F407CFFECE87EF91E0E2CF81EF91E0F0
:1058A000DFCF8AEE91E0DCCFF50181915F010E94AC
:1058B000E90DE8CF8DE092E00E94690EE6CF80917D
:1058C000F40261E070E08111ECCE082F10E02B01B2
:1058D000082E02C0440C551C0A94E2F7A901442189
:1058E0005521452B09F448C09091F30290FD46C024
:1058F0008295880F807680932701980136952795A9
:105900003695279520932A01815E80932801109275
:105910002B0124E630E047E050E065E271E088E7E3
:105920000E940F31892B09F0BCCEA801E5E0440F9D
:10593000551FEA95E1F78091F30280FD2DC0475590
:105940005C4F04E610E020E230E060E488E70E946B
:105950003031892B09F0A5CE0E94F40FC201809549
:1059600090954090A7035090A80348225922509246
:10597000A8034092A70395CE8F5FA7CF880F880F0B
:10598000880F8093270110922A01895F8093280154
:1059900083E080932B01BDCFE3EDF2E080E2DF01F5
:1059A0001D928A95E9F7E0EDF1E0FCABEBAB0CEC76
:1059B00011E074ED872E71E0972EABA9BCA92D9153
:1059C000BCABABABF80121908F01240E352E311CFE
:1059D000C10187559C4F1C01E22FF0E0ED52FD4FB5
:1059E00030E020E067E0662E621ACC24C394022ED9
:1059F00001C0CC0C0A94EAF7510190E0D5018D91D9
:105A00005D018C21662D691B6770762E062E000CB9
:105A1000770BB82F01C0BB0F7A94EAF77B2E7195F4
:105A2000619571096770772701C086956A95EAF7D5
:105A3000782A8081782A70829F5F9830F9F62F5FEC
:105A40003F4F31962830310569F6EBA9FCA98E1637
:105A50009F0609F0B2CF04E610E020E230E043ED0B
:105A600052E073CF209135018AE0289F90011124E4
:105A70002417350708F057CE9F5F9093030302C0A9
:105A80009F3FD1F71B81112359F00E943E0A9FEFDF
:105A900011160CF491E0899F802D112480930B0343
:105AA0001C81112359F00E943E0A9FEF11160CF43D
:105AB00091E0899F802D112480930C0330910B037A
:105AC000332309F430CE20910C03222309F42BCE8A
:105AD00045EB3403C0011124992359F090930B0333
