:100000000C9455050C9472050C9472050C942E29D1
:100010000C9472050C9472050C9472050C94720584
:100020000C9472050C9472050C94F7110C9418162C
:100030000C9434210C9472050C9472050C94720586
:100040000C9472050C9472050C9472050C94720554
:100050000C9472050C94D0120C9472050C947205D9
:100060000C9472050C9472050C9472050C94720534
:100070000C9472050C9472050C9472050C94720524
:100080000C9472050C9472050C9472050C94720514
:100090000C9472050C9472050C9472050C94720504
:1000A0000C9472050C9472050C947205202020208B
:1000B0006162636465666768696A6B6C6D6E6F70B8
:1000C0007172737475767778797A31323334353664
:1000D00037383930524542545F2D3D5B5D5C233BE0
:1000E00027602C2E2F202020E10014001A00080089
:1000F000150017002B0004001600070009000A0075
:10010000E0001D001B0006001900050000000000B3
:100110000000E30021522C223900130012000C00D1
:1001200018001C00340033000F000E000D000B00FF
:1001300029003800370036001000110000000000D0
:1001400000002A0022522824E1001E001F00200087
:10015000210022002B000000000000000000000031
:10016000E0000000000000000000000000000000AF
:100170000000E30001002C220000270026002500DB
:1001800024002300000039004F00520051005000AD
:10019000000049004D004B004E004A0000000000E6
:1001A00000002A0023522824E1001E021F02200220
:1001B000210222022B0000000000000000000000CD
:1001C000E00000000000000000000000000000004F
:1001D0000000E30023522C22000027022602250201
:1001E000240223023500310030002F002E002D00A4
:1001F0003502310230022F022E022D0200000000D3
:1002000000002A000100282400003A003B003C00C6
:100210003D003E000000000000000000000046001D
:100220000000000000000000000047000000000087
:1002300000000000010000000000430042004100F7
:1002400040003F0000004400BB00A900AA00BC0021
:1002500000004500B200A800AE00AD0000000000A4
:10026000000000000100000000DA0281FFD9F1DB8C
:1002700020A4A62EAF00A0C0D30000A1C8D30000C8
:10028000AED580A81F408D142000556E64656600B1
:1002900041646A757374005261697365004C6F77CD
:1002A00065720044656661756C74004C61796572B5
:1002B0003A20003A002C206B0078008081828384F1
:1002C00085868788898A8B8C8D8E8F909192939466
:1002D000A0A1A2A3A4A5A6A7A8A9AAABACADAEAFA6
:1002E000B0B1B2B3B4C0C1C2C3C4C5C6C7C8C9CA1D
:1002F000CBCCCDCECFD0D1D2D3D4000001010101DF
:1003000001010101010202020202020202020303D0
:1003100003030303030304040404040404050505A0
:100320000505060606060607070707070808080862
:10033000090909090A0A0A0B0B0B0C0C0C0D0D0D0F
:100340000E0E0E0F0F0F10101111111212131314A5
:1003500014151516161717181819191A1A1B1B1C1D
:100360001D1D1E1E1F202021222223242425262677
:10037000272829292A2B2C2D2D2E2F3031323233AC
:100380003435363738393A3B3C3D3E3F40414243B5
:100390004445464748494A4C4D4E4F505153545599
:1003A0005658595A5B5D5E5F616264656668696B49
:1003B0006C6D6F7072737577787A7B7D7E808283C7
:1003C0008587888A8C8E8F91939596989A9C9EA00B
:1003D000A2A3A5A7A9ABADAFB1B3B5B7BABCBEC018
:1003E000C2C4C6C9CBCDCFD1D4D6D8DBDDDFE2E4E1
:1003F000E7E9EBEEF0F3F5F8FAFDFF00AF00AE052C
:10040000010902A10185020901A1000509190129BB
:1004100008150025019508750181020501093009BB
:10042000311581257F9502750881060938158125CA
:100430007F950175088106050C0A38021581257F14
:10044000950175088106C0C005010980A1018503D9
:1004500019012AB700150126B70095017510810012
:10046000C0050C0901A101850419012AA00215018A
:1004700026A002950175108100C005010906A101A1
:100480008506050719E029E715002501950875017E
:1004900081020507190029EF1500250195F0750166
:1004A000810205081901290595057501910295013B
:1004B00075039101C005010906A101050719E0298D
:1004C000E7150025019508750181029501750881E0
:1004D000010507190029FF150026FF00950675087C
:1004E00081000508190129051500250195057501EB
:1004F0009102950175039101C009023B00020100C0
:10050000A0FA090400000103010100092111010002
:1005100001224400070581030800010904010001CC
:100520000300000009211101000122B60007058225
:1005300003200001120100020000000853460100E0
:100540000100010200010C0343006F0072006E0005
:1005500065000000100366006F006F0073007400F8
:1005600061006E00000004030904000000000000A8
:100570003E5B4F5B3E003E6B4F6B3E001C3E7C3E45
:100580001C00183C7E3C18001C577D571C001C5E4C
:100590007F5E1C0000183C180000FFE7C3E7FF0067
:1005A000001824180000FFE7DBE7FF0030483A0698
:1005B0000E00262979292600407F05050700407F87
:1005C00005253F005A3CE73C5A007F3E1C1C0800B2
:1005D000081C1C3E7F0014227F2214005F5F005F16
:1005E0005F0006097F017F00006689956A006060F0
:1005F0006060600094A2FFA2940008047E040800DA
:1006000010207E20100008082A1C0800081C2A0858
:1006100008001E10101010000C1E0C1E0C003038AC
:100620003E383000060E3E0E0600000000000000BE
:1006300000005F000000000700070000147F147F27
:100640001400242A7F2A120023130864620036490A
:1006500056205000000807030000001C2241000043
:100660000041221C00002A1C7F1C2A0008083E08AA
:10067000080000807030000008080808080000002A
:10068000606000002010080402003E5149453E0011
:1006900000427F4000007249494946002141494DCE
:1006A00033001814127F10002745454539003C4A95
:1006B00049493100412111090700364949493600AD
:1006C000464949291E000000140000000040340083
:1006D00000000008142241001414141414000041F6
:1006E000221408000201590906003E415D594E00DE
:1006F0007C1211127C007F49494936003E4141413C
:1007000022007F4141413E007F49494941007F0924
:10071000090901003E41415173007F0808087F002C
:1007200000417F4100002040413F01007F0814222A
:1007300041007F40404040007F021C027F007F0458
:1007400008107F003E4141413E007F090909060033
:100750003E4151215E007F09192946002649494939
:10076000320003017F0103003F4040403F001F2053
:1007700040201F003F4038403F00631408146300CE
:100780000304780403006159494D4300007F41414F
:100790004100020408102000004141417F00040292
:1007A00001020400404040404000000307080000F0
:1007B0002054547840007F2844443800384444444E
:1007C0002800384444287F00385454541800000846
:1007D0007E0902001824241C78007F080404780095
:1007E00000447D4000002040403D00007F10284430
:1007F000000000417F4000007C04780478007C0801
:10080000040478003844444438007C182424180038
:10081000182424187C007C0804040800485454540C
:10082000240004043F4424003C4040207C001C2061
:1008300040201C003C4030403C004428102844002C
:100840004C9090907C004464544C44000008364125
:10085000000000007700000000413608000002019F
:10086000020402003C2623263C0000000000000099
:1008700000000000000000000000C0E0F0F8F818E0
:1008800000C0F0FCFEFFFFFFFFFFFFFF7E00000047
:1008900000000000000080C0E0E0E0E0E0E0E0E018
:1008A000C0800000000080C0E0E0E0E0E0E0E0E0C8
:1008B000C080000000E0E0C0C0E0E0E0E00000E058
:1008C000E0C0C0E0E0E0E0E0C0800000000080C0E8
:1008D000E0E0E0E0E0E0E0E0C080000000000000D8
:1008E0000000000000000000E0F0F0F0E0ECEEF7A7
:1008F000F37020007C7C7C7E007E7E7E7F7F7F008C
:100900000080C0E07E5B4F5BFEC00000C000DCD713
:10091000DEDEDED7DC00C0000000000000000000CA
:1009200000000000000000000000000000000000C7
:10093000000000F8FCFEFFE000FFFFFFFFFFFF806C
:10094000FFFFFFFFFFFFFFFFFF1F07010000000089
:100950000000000000FFFFFF810000000000008198
:10096000C3C3C30000FFFFFF81000000000000813F
:10097000FFFFFF0000FFFFFF01000000000000FF7D
:10098000FFFF010000000001FFFFFF0000FFFFFF6D
:100990009D1C1C1C1C1C1C9DDFDFDF0000000000D8
:1009A00000000000000000000F1F3F7F7F7F7F7F5F
:1009B0003F1E0C001F1F1F3F003F3F3F7F7F7F00F8
:1009C000307B7F7830202030787F3B0003000F7F22
:1009D0000F0F0F7F0F000300000000000000000059
:1009E0000000000000000000000000000000000007
:1009F000000000030F1F3F3F3F3F1F1F3F3F7F7F10
:100A00007F3F3F1F3F7F7F7F7F7C7878381C0F00C0
:100A1000000000000000010307070707070707079A
:100A20000301000000000103070707070707070786
:100A30000301000000070707000000000000000796
:100A4000070700000000000007070700000001037F
:100A5000070707070707070703010000000000005A
:100A60000000000000000000000000000000000086
:100A70000000000000000000000000000000000076
:100A80000000000000000000000000000000000066
:100A90000000000000000000000000000000000056
:100AA0000000000000000000000011241FBECFEF76
:100AB000DAE0DEBFCDBF11E0A0E0B1E0E0ECF7E5A9
:100AC00002C005900D92A239B107D9F725E0A2E93D
:100AD000B1E001C01D92A43CB207E1F70E945B2186
:100AE0000C948A2B0C940000482F2091B503909110
:100AF0007C0357E0291302C080E0089530E0529F44
:100B0000F001539FF00D1124E358FC4F81816813CD
:100B100006C08081481303C085818111EECF2F5F0D
:100B20003F4F2770E7CFFC01AC014C5F5F4F8FEF69
:100B300091E32191822728E030E087FF09C0880FE8
:100B4000892721503109C9F7E417F50791F708956E
:100B5000880FF7CFE8EDF0E080818E7F80831092E0
:100B6000E2001092DA001092E100A0EEB0E08C9169
:100B700081608C9380818F77808319BCA7EDB0E072
:100B80008C918E7F8C9380818F7E80831092650301
:100B900008952091E4003091E50095E6A9012091A7
:100BA000EC00822F817020FF06C08091E80080FF5A
:100BB00006C080E008952091E80022FD1AC08091CF
:100BC0007203882389F0853089F08091EB0085FDE0
:100BD0000FC02091E4003091E50042175307F9F26D
:100BE0009150E1F684E0089582E0089583E008954D
:100BF00081E008958091740387FF13C08091E8001D
:100C000082FF06C08091E8008B778093E80004C0E3
:100C1000809172038111F2CF08958091720388232D
:100C2000D9F38091E80080FFF8CF8091E8008E77BB
:100C3000ECCF982F9093E900242F762F50E089175E
:100C400031F07091EC002091ED005091F00021FD09
:100C500007C09F5F973071F78093E90081E00895A6
:100C60003091EB003E7F3093EB003091ED003D7F03
:100C70003093ED003091EB0031603093EB007093D6
:100C8000EC002093ED005093F0002091EE0027FD42
:100C9000E0CF80E00895B0E0A0E0E1E5F6E00C945C
:100CA000682AC8EDD0E088818F7E8883E7EDF0E088
:100CB00080818160808384E082BF81E080936503CE
:100CC00088818E7F888302EE10E0F80110821092F6
:100CD000DA0081EEC82ED12CF601108288818F7740
:100CE000888388818068888388818F7D888319BC08
:100CF000109272031092730310927103109270039A
:100D000090EEE92EF12CF70180818B7F8083888122
:100D10008160888342E060E080E00E941906F6016D
:100D200080818E7F8083F8018081816080838081D3
:100D300088608083F70180818E7F808388818061D5
:100D40008883CDB7DEB7E8E00C94842AFC0180915B
:100D50007A0390917B0386179707A0F061157105C0
:100D600029F49091E8009E779093E80090E0611557
:100D7000710551F4911108C08091E80082FF34C0E0
:100D800080E00895BC01F2CF809172038823C1F105
:100D90008530C1F18091E80083FD30C08091E8008A
:100DA00082FDEACF8091E80080FFE1CF8091F300DF
:100DB0002091F200382F6115710519F028303105A6
:100DC00058F091E02830310509F090E02091E800DA
:100DD0002E772093E800CBCF81918093F100615072
:100DE00071092F5F3F4FE7CF80917203882341F055
:100DF000853041F08091E80083FFBECF81E0089507
:100E000082E0089583E0089580916703089587E75D
:100E100097E7909301088093000888E19AE00FB665
:100E2000F894A895809360000FBE90936000FFCF68
:100E30002FB7F8946091610370916203809163030E
:100E4000909164032FBF0895909142019923D1F0AE
:100E500090915E0397FF16C0E82FE695E695E6951C
:100E6000EE31E0F4F0E0E456FE4F282F277081E0E9
:100E700090E001C0880F2A95EAF780959281892336
:100E800082830895E6E9F1E09191891303C0DF01BF
:100E900011971C9291E0EC39F907B1F70895909100
:100EA00042019923C1F090915E0397FF14C0E82F8F
:100EB000E695E695E695EE31F8F4F0E0E456FE4F5F
:100EC000877021E030E001C0220F8A95EAF7828125
:100ED000822B82830895A6E9B1E0EFEF90E02D9197
:100EE000821751F0EF3F19F4211101C0E92F9F5FE4
:100EF0009630A9F7EF3F09F408950E2E000CFF0B72
:100F0000EC56FE4FE6CFA3E0B0E0E9E8F7E00C9442
:100F10006E2A20915C0330915D0328173907A1F0F8
:100F200090935D0380935C03E0915A03F0915B031F
:100F3000309751F024E029839B838A830084F185D4
:100F4000E02DCE01019609952396E2E00C948A2AC1
:100F5000A3E0B0E0EEEAF7E00C946E2A209158038B
:100F60003091590328173907A1F0909359038093C2
:100F70005803E0915A03F0915B03309751F023E05E
:100F800029839B838A830084F185E02DCE0101961D
:100F900009952396E2E00C948A2A809156038823CF
:100FA00059F0E0915A03F0915B03309729F00190DA
:100FB000F081E02D0995089580E0089580914B031C
:100FC00080FD16C081FD16C082FD16C080914A03C7
:100FD0008823A1F0883280F428E0829FC001112488
:100FE00068E270E00E94A12A862F672B39F00895ED
:100FF00082E0089584E0089588E0089581E00895EE
:1010000080914B0380FD14C081FD14C082FD16C089
:1010100080914903882381F08E3180F420E5829FFE
:10102000C00111246EE170E00E94A12A862F08956C
:1010300084E1089588E2089588E0089580E50895A0
:10104000282F35EB2303C001112497FF04C08058DB
:101050009109892F089580589F4FFBCFFA01811184
:1010600001C0FB010995089560913E0180913B0309
:1010700080FF0CC070E080913D0123E0829FC001A1
:10108000112487569D4F0E94C90D089580913F01FC
:101090009091400123E0829FF0011124E756FD4F1B
:1010A000891740F71182108212828F5F3396F8CF32
:1010B00080913B03982F9C7F71F480913B03837058
:1010C000846080933B0380913E03893718F088E762
:1010D00080933E030895883080F7F5CF80E008952F
:1010E000F894E82FE295EF70F0E031A1282F2F70EF
:1010F00081E090E001C0880F2A95EAF7982F90953B
:10110000932391A392A1892B82A3789408950F939E
:101110001F9380915603882329F00E9418071F917E
:101120000F9108950E941807009142021091430206
:101130002091440230914502600F711F821F931F5E
:10114000EECF90915E0392FF10C041E0282F2471F2
:10115000243009F040E031E0282F2871283009F0D0
:1011600030E0431711F02CE0822793FF10C041E0DC
:10117000282F2471243109F040E031E0282F287114
:10118000283109F030E0431711F02CE0822730912C
:101190005F0330FF10C051E0282F2171213009F08A
:1011A00050E041E0282F2871283009F040E0541722
:1011B00011F029E0822731FF10C041E0282F217172
:1011C000213109F040E031E0282F2871283109F061
:1011D00030E0431711F029E0822794FD877E0895BF
:1011E00082389105B9F1B0F48133910509F47DC0DD
:1011F00048F48932910509F46DC08A32910509F4E9
:101200007BC008958533910509F45FC0893391054A
:1012100009F10895833E9105D9F138F4803E910596
:1012200029F1823E910579F10895863E9105D9F123
:10123000873E910509F43EC0843E910541F5209119
:101240005F0321FF24C080915E0384FD19C087EEF7
:1012500090E0089520915E03237009F05AC0209118
:101260005F0323FF14C089E290E0089520915E039C
:1012700020FD38C030915F0330FF09C024FF43C018
:1012800090E080E0089520915E0322FDF7CF08955D
:1012900020915E0322FD3AC030915F0330FD39C0DA
:1012A00024FFF5CFEDCF20915E0323FFF0CF24FD87
:1012B000E7CFCDCF20915E0323FD2EC030915F0399
:1012C00031FFEECF84EE90E0089520915E0325FF7C
:1012D000DECFC9CF20915E0325FD21C020915F03A1
:1012E00023FFD5CF89E390E0D2CF20915E0326FF84
:1012F000CECF8AE290E0089520915E0326FFC7CF0B
:1013000081E390E0089583EE90E0089582EE90E00E
:10131000089580EE90E0089586EE90E0089585E3CC
:1013200090E00895972F7830B8F46630A8F48430B0
:10133000B0F470E026E0929F600D711D1124FB0156
:1013400090E3899FE00DF11D1124EE0FFF1FE8517E
:10135000FF4F85919491089580E090E0089581E099
:10136000FCCF1F93CF93DF930E94F008EC01C115CF
:1013700080E5D807F0F5C11580E4D80708F09CC0D7
:10138000C03ED10520F5CD3CD10508F082C0C83A59
:10139000D10578F4C53AD10508F073C0C130D10544
:1013A00019F1209709F1C430D105F0F4D0E0C0E084
:1013B0001BC0C33CD105D0F7C85AD0E0CC0FDD1F0D
:1013C000CA5BDE4F0990D881C02DD4640DC0C11511
:1013D00080E2D80708F0D1C0C11581E0D80708F035
:1013E0005AC0C83ED10510F7CE01DF91CF911F91B1
:1013F0000895C03682E5D80718F5C03482E5D807CD
:1014000008F06BC0C03282E5D80708F05FC0C11594
:1014100082E5D80708F497C02C2F2695269580E200
:10142000289F900111248C2F8370C1E0D0E002C06E
:10143000CC0FDD1F8A95E2F7C22BD32BDD68D4CF0A
:10144000C03A82E5D80760F4C03882E5D80708F4CE
:1014500059C0CF71D0E0DC2FCC27C46FD06AC4CF85
:10146000C03C82E5D80708F462C0C03E82E5D807D8
:1014700008F09CCFDC2FCC27CC27DF71C06FD06A5F
:10148000B3CFC55AD0E0CD5BDE4FC881D0E0D06489
:10149000ABCFD065A9CF8D2F0E94A108182FCE0108
:1014A00099270E94F008C12FD0E0DC2FCC27CC2751
:1014B000DF71C82BD92B98CFCE0199270E94F00855
:1014C000CC27DF70C82BD92BD06A8ECFCF71D0E05C
:1014D000DC2FCC27C16FD06A87CF2C2F269526957D
:1014E000277080E2289F900111248C2F8370C1E027
:1014F000D0E002C0CC0FDD1F8A95E2F7C22BD32BC0
:10150000DC6872CF2C2F26952695277080E2289FC5
:10151000900111248C2F8370C1E0D0E002C0CC0F69
:10152000DD1F8A95E2F7C22BD32BDA685DCF8C2FB3
:101530008F710E94A108C82FD0E0DC2FCC27CC27C8
:10154000DF71D06251CF8C2F8F710E94A10855E0BE
:10155000D695C7955A95E1F7CF70D0E0DC2FCC2710
:10156000282F30E084FF05C044E0220F331F4A9546
:10157000E1F7C22BD32BD06937CF8D2F8F710E940B
:10158000A108182FCE0199270E94F008C12FD0E0A2
:10159000DC2FCC27CC27DF71C82BD92BD2CF80955D
:1015A0009091080298239093080208958091080270
:1015B0009091DF01892B9091DE01992391F0892B85
:1015C00090914201992371F090915E0397FF0AC0B8
:1015D0009EE12EE931E040E0915040F4411110923B
:1015E000DE01089596E026E931E0F5CFF901519149
:1015F0009F01552389F34F5FEFCF8091B503909101
:101600007C03981301C008958F5F8770FACFB0E014
:10161000A0E0EDE0FBE00C94672A7C0100916402FD
:10162000109165028091500290915102082B192B64
:10163000CFE0D0E0CC24C394D12CBC2EC6010C2E1C
:1016400002C0880F991F0A94E2F780239123892B07
:1016500049F4219790F7B12C8B2DCDB7DEB7E9E097
:101660000C94832AB7018C2F0E9492090E94B10921
:10167000019779F3F1CFCF93DF93EC010E94070B31
:10168000BE010E9492090E94B109DF91CF91089595
:10169000983078F5863068F5E82FF0E086E0989F7E
:1016A000E00DF11D11249E2F977083E0F695E795CC
:1016B0008A95E1F7EE0FFF1FEE0FFF1FE254FE4F7A
:1016C00050E040E080E0219130E0092E02C03695E4
:1016D00027950A94E2F721703327042E01C0220FC8
:1016E0000A94EAF7822B4F5F5F4F4430510559F758
:1016F000089580E00895983098F5863088F5E82FB1
:10170000F0E086E0989FE00DF11D11248E2F877088
:1017100041E001C0440F8A95EAF783E0F695E7952A
:101720008A95E1F7EE0FFF1FEE0FFF1FE254FE4F09
:1017300030E020E070E05191DF011197CB01022EE3
:1017400002C0969587950A94E2F781708195852766
:10175000842385278C932F5F3F4F2430310559F721
:1017600008959093650280936402089521E030E02B
:1017700002C0220F331F8A95E2F7209530958091A1
:10178000640290916502822393230E94B10B089515
:101790009091DD01809589238093DD01282F2770AA
:1017A00069F4891759F090915F0392FF07C08695FD
:1017B000869586950E94B60B1092DD01089521E072
:1017C00030E002C0220F331F8A95E2F78091640255
:1017D00090916502822B932B0E94B10B08959093F8
:1017E0005102809350020895FC0124812223C1F00C
:1017F000808191810E943B0B92959F70963091F071
:1018000058F4925F9F70923058F4803F19F030F492
:10181000883E30F481E008959A5FF4CF843FD1F39D
:1018200080E00895883EB0F3813FD1F7F3CFA6E082
:10183000B0E0EDE1FCE00C946D2A49835A834981C4
:101840005A819923A1F0222391F0CA010E94070B2B
:10185000182F682F89819A810E947B0B69817A8178
:10186000812F0E9492092696E3E00C94892ACA01EE
:101870000E94480B182FF2CFCF93DF93682F81E09F
:101880006A3019F06D3031F480E00E94CA0CDF91AB
:10189000CF9108958091C2059091C30526E0FC0187
:1018A000ACEBB5E001900D922A95E1F7603E08F4AB
:1018B00058C026E0FC0111922A95E9F7C091C205B3
:1018C000D091C30546E050E0BE018CEB95E00E944C
:1018D0001C2B9E012C5B3340892B41F1C90145E053
:1018E000969587954A95E1F741E050E0BA0102C02C
:1018F000660F771F8A95E2F7CB016091BA0370916A
:10190000BB03862B972BB9016B5F7F4FE5E0769584
:101910006795EA95E1F702C0440F551F6A95E2F713
:10192000842B952B9093BB038093BA032A5F3F4F80
:101930004091B903642F70E0C9010E944A2A481BF4
:10194000463010F4240F311D211572E0370710F0D6
:1019500030E020E024543C4F3093C3052093C2056F
:1019600096CFF6E06F9FB001112466597A4F46E09A
:1019700050E00E94132BA2CFCF93DF93EC01FE0126
:101980008491811103C0DF91CF9108950E943C0C96
:101990002196F5CFCF93382FE091C205F091C30582
:1019A000EC5BF3402091B903622F70E0CF010E94FD
:1019B0004A2A281B822F332361F066E00E94952A71
:1019C000C82FC15010F4CF91089580E20E943C0CC2
:1019D000F8CF9F01280F311D2115324018F080E00B
:1019E000F0E0E0E08E0F9F2F911D84549C4F909368
:1019F000C3058093C205E7CF0E94BC0C81E00E9422
:101A0000CA0C089580914201882359F180915E03A8
:101A100087FF27C00E94D60A80939D0140E250E0D4
:101A200060EE71E08CE991E00E941C2B892BC1F0E3
:101A300080E2ECE9F1E0A0EEB1E001900D928A9530
:101A4000E1F7E0915A03F0915B03309749F086E0AB
:101A500080939C010480F581E02D8CE991E009954B
:101A600008950E94D60A8093940148E050E060E017
:101A700072E084E991E00E941C2B892B89F388E0B5
:101A8000E4E9F1E0A0E0B2E001900D928A95E1F77F
:101A9000E0915A03F0915B03309711F30280F381D8
:101AA000E02D84E991E0DBCF882321F00E94CF0A6A
:101AB0000E94020D0895882339F090910802982B16
:101AC000909308020E94020D08950F931F93CF93E5
:101AD000DF938B01EA0190917203943061F580935A
:101AE000E9008FEF9091E800815095FD06C095EDDB
:101AF0009A95F1F700008111F5CF8091E80085FFFC
:101B00001AC00E94C905811111C08091E80085FDAD
:101B100006C08091E8008E778093E800F2CFF8014C
:101B200081918F018093F100219779F78091E800EE
:101B30008E778093E800DF91CF911F910F910895E8
:101B400043E050E0BC0182E00E94650D089546E04C
:101B500050E0BC0182E00E94650D089540E250E033
:101B6000BC0182E00E94650D0895CF93DF93EC01E4
:101B700048E050E0BC0181E00E94650D88E0FE0174
:101B8000A8E6B3E001900D928A95E1F7DF91CF913D
:101B90000895539A4BB1477F5BB15860EFB7F89403
:101BA0009B01220F331F260F371F280F391F2817BD
:101BB000390741F4EFBF8FE594E00197F1F700C0DA
:101BC00000000895DC016D91CD0178E05BB9000063
:101BD00000C067FF4BB9660F000000C000C000C026
:101BE0004BB900C07A9591F7E2CFB0E0A0E0EBEFFF
:101BF000FDE00C94662A7C015B016A018091410240
:101C000001E010E08A3010F40AE010E0C1E0D0E01A
:101C1000B501C701F6010995811104C021960C1781
:101C20001D072CF4CDB7DEB7EAE00C94822ACC9FD6
:101C30009001CD9F300D300D112490E080E045E300
:101C40004A95F1F70000019682179307C1F7E0CF9C
:101C5000AB0124E630E0BC0188E70E94FE2721E0CA
:101C6000892B09F020E0822F0895809147039091FD
:101C70004803911103C091E089270895882369F0F2
:101C800062E070E08DEF93E00E94280E811103C0A6
:101C90008091470308951092470380914703EBCF4B
:101CA000CF93C0914703809148038823D1F00E94CD
:101CB0001807605A75418F4F9F4F6093430370938D
:101CC00044038093450390934603C11108C062E02A
:101CD00070E08BEF93E00E94280E811105C0C09147
:101CE00047038C2FCF91089581E080934703F7CF6E
:101CF000B0E0A0E0EEE7FEE00C94642A49015A014E
:101D00006B017C010E9458088401A4016A2D7B2D7F
:101D100088E090E00E94682B94014A2D5B2DB6016B
:101D2000C70100E20E94F82A622F84E290E00E943C
:101D3000562BCDB7DEB7ECE00C94802AB0E0A0E0E3
:101D4000E4EAFEE00C94642A182FC62FD42F822ECA
:101D500000913B0300FF51C080913C03811308C0F8
:101D600080913D03861304C080913E03841729F0BF
:101D700080919802826080939802E02FE695E69524
:101D8000F0E0E057FE4F808180939602802F8C7F99
:101D90008430E9F4ED2FD93708F0E8E7F0E0E550BA
:101DA000FD4FC1112FC02491F22FE22F00FF0FC071
:101DB00080913F019091400133E0839FD001112435
:101DC000A756BD4F891708F492C00E94340810939B
:101DD0003C03C0933D03D0933E03882071F02091D3
:101DE0003B0360913F0370914003312FAE0180911E
:101DF0004103909142030E94780ECDB7DEB7ECE02C
:101E00000C94802AEC2EF12CE4919E2ECE2ED12C17
:101E100026E0129FC00111242FEF30E0B9010E948B
:101E20004A2A812F90E0880F991FF5E5F69FA001BF
:101E3000F79F500D1124841B950BB82EBB0CB80EC8
:101E4000A9014E195F094C9DC0014D9D900D5C9DEF
:101E5000900D1124F92FCB9DA0011124452F55275A
:101E6000D901A41BB50BAC9DA001AD9D500DBC9D2F
:101E7000500D1124D901AB19B1095D01AE9CD001FF
:101E8000AF9CB00DBE9CB00D1124AB2FBB272A1BFD
:101E90003B0B2C9DD0012D9DB00D3C9DB00D112410
:101EA0002B2F62307105A1F050F46115710509F412
:101EB0007DCF6130710581F0292FF52F77CF643008
:101EC000710569F080F06630710509F46FCFF4CFC9
:101ED0002E2FE92FFB2F6ACF2E2FE52F67CF292F2B
:101EE000FE2FEB2F63CFE92FF92D252F5FCF119612
:101EF000EC9311972C931296FC9312978F5F139685
:101F000061CFEBE3F3E0438121E1421B08F440E0C1
:101F100021E0628181810E949E0E0895EBE3F3E04F
:101F2000438121E1420F08F44FEF21E0628181817A
:101F30000E949E0E0895EBE3F3E0628121E1621BB3
:101F400008F460E021E0438181810E949E0E0895A3
:101F5000EBE3F3E0628121E1620F08F46FEF21E02F
:101F6000438181810E949E0E0895EBE3F3E081811D
:101F700021E04381628188500E949E0E0895EBE328
:101F8000F3E0818121E043816281885F0E949E0E9F
:101F9000089580913F03882319F0815080933F0377
:101FA00020913B0330913C0340913D0350913E030F
:101FB00060913F03709140038091410390914203EF
:101FC0000E94780E089580913F03833018F48F5F4C
:101FD00080933F0320913B0330913C0340913D03AC
:101FE00050913E0360913F03709140038091410303
:101FF000909142030E94780E089520913B0320FFA8
:1020000024C02370246020933B0380919802816058
:1020100080939802662381F030913C0340913D0308
:1020200050913E0360913F037091400380914103C2
:10203000909142030E94780E20E040913E0360910F
:102040003D0380913C030E949E0E089580913B03C6
:1020500086958695815009F481E061E00E94FD0F2C
:10206000089561E081E00E94FD0F089590915F0363
:1020700092FB222720F9281779F080FB92F99093A0
:102080005F0360915E0370915F0384E090E00E94C3
:10209000742B82E00E94C80B08954F925F926F925A
:1020A0007F928F929F92AF92BF92EF92FF920F9387
:1020B0001F93CF93DF937B01FB01408051806280AF
:1020C00073809FB7F8948090610390906203A09012
:1020D0006303B09064039FBF84189508A608B708EF
:1020E000F4E68F169104A104B10418F4C1E044236E
:1020F00029F1C82F880FDD0BFE0183E0EE0FFF1FD3
:102100008A95E1F7E050FF4F818192818F5D9D4F6D
:10211000408150E00417150708F4A801B9010E9496
:10212000292BCE010E94D429C82F882339F00E9480
:102130001807F70160837183828393838C2FDF916B
:10214000CF911F910F91FF90EF90BF90AF909F9014
:102150008F907F906F905F904F900895ABE0B0E0CC
:10216000E4EBF0E10C946C2A88E0EBE3F3E0DE01B1
:10217000119601900D928A95E1F7809196029091C7
:102180009702A091980289879A87AB8741E08B8557
:10219000811101C040E00BE010E09E012F5F3F4F36
:1021A0006DE372E084E00E944D108111109298025C
:1021B0002B96E4E00C94882A0F931F93CF93DF9320
:1021C000EC0144E050E066E272E00E941C2B41E02A
:1021D000892B09F440E004E010E09E016DE172E01B
:1021E00082E00E944D10DF91CF911F910F910895D1
:1021F000A4E0B0E0EEEFF0E10C946D2A40913902DA
:1022000050913A0260913B0270913C022FB7F894D2
:102210008091610390916203A0916303B091640384
:102220002FBF841B950BA60BB70B11E084369105CD
:10223000A105B10570F10E9487086E5F7F4F8F4F37
:102240009F4F69837A838B839C838091190190913E
:102250001A018F5D9D4F4091180150E045305105A6
:1022600010F044E050E0BE016F5F7F4F0E94292BC9
:1022700083E090E00E94D429182F882351F00E9417
:1022800018076093390270933A0280933B0290934F
:102290003C02812F2496E3E00C94892AEF92FF926E
:1022A0001F93CF93DF9300D000D00F92CDB7DEB74E
:1022B0007B0190E080E00E94D429182F882309F444
:1022C0006DC04091030150E04115510511F041E00E
:1022D00050E060910401709105016F5D7D4FCE016A
:1022E00005960E94292B4091190250911A02609183
:1022F0001B0270911C022FB7F8948091610390919A
:102300006203A0916303B09164032FBF841B950BFC
:10231000A60BB70B84369105A105B10538F482E20E
:1023200092E00E9493059D818917C1F181E090E0C0
:102330000E94D429882309F458C040910B0150E031
:102340004530510510F044E050E060910C0170916F
:102350000D016F5D7D4FCE0101960E94292B82E217
:1023600092E00E9493059D8189133FC00E94180747
:102370006093190270931A0280931B0290931C02BF
:1023800089819A81AB81BC8180931502909316025A
:10239000A0931702B093180211E00EC080912202A0
:1023A00090912302A0912402B091250289839A83FF
:1023B000AB83BC831111E4CF80911502909116027A
:1023C000A0911702B0911802F70180839183A28334
:1023D000B383812F0F900F900F900F900F90DF918C
:1023E000CF911F91FF90EF90089510E0E5CF1F92DD
:1023F0000F920FB60F9211242F933F934F935F9339
:102400006F937F938F939F93AF93BF93EF93FF93BC
:102410008091E10082FF09C08091E20082FF05C047
:102420008091E1008B7F8093E1008091DA0080FF52
:1024300024C08091D80080FF20C08091DA008E7F78
:102440008093DA008091D90080FF9DC080E189BD32
:1024500082E189BD09B400FEFDCF81E08093720363
:1024600080916503811109C00E94AA050E944B0654
:102470008091E20084608093E2008091E10080FF1F
:1024800017C08091E20080FF13C08091E2008E7F30
:102490008093E2008091E20080618093E20080916D
:1024A000D80080628093D80019BC85E080937203C5
:1024B0008091E10084FF2BC08091E20084FF27C05F
:1024C00080E189BD82E189BD89B5982F917080FF37
:1024D000FBCF8091D8008F7D8093D8008091E10060
:1024E0008F7E8093E1008091E2008F7E8093E200F6
:1024F0008091E20081608093E200809173038823E1
:1025000009F447C084E08093720380917203809144
:10251000E10083FF27C08091E20083FF23C0809108
:10252000E100877F8093E10082E080937203109244
:1025300073038091E1008E7F8093E1008091E2003F
:102540008E7F8093E2008091E20080618093E200C0
:1025500042E060E080E00E9419068091F00088600F
:102560008093F000FF91EF91BF91AF919F918F9178
:102570007F916F915F914F913F912F910F900FBE7F
:102580000F901F90189519BC10927203109265035A
:1025900074CF8091E30087FD93E090937203B5CFF1
:1025A00078941F921FB61F9211248F939F93AF931D
:1025B000BF938091610390916203A0916303B091F6
:1025C00064030196A11DB11D809361039093620382
:1025D000A0936303B0936403BF91AF919F918F91D8
:1025E0001F901FBE1F9018959C014FB7F8948091C3
:1025F000610390916203A0916303B09164034FBFA4
:10260000821B930B08952FB7F894809161039091EA
:102610006203A0916303B09164032FBF08950E94E9
:1026200003139C019091520380915303982B21F046
:1026300030934F0320934E039091540380915503A0
:10264000982B21F030934D0320934C03E0915A03D3
:10265000F0915B03309749F082E08093500306804D
:10266000F781E02D80E593E0099508951092080226
:1026700080914201882339F180915E0387FF23C056
:10268000EEE9F1E08EE1DF011D928A95E9F790E035
:1026900080E00E94A80790E080E00E9483071092EB
:1026A000DF010E94020D86E0E0E5F3E0DF011D920C
:1026B0008A95E9F71092490310924A0310924B034E
:1026C0000E940F130895E6E9F1E086E0DCCFAAE26C
:1026D000B0E0EDE6F3E10C946D2A84E793E02091FD
:1026E000F100FC012193CF01F3E08C379F07B9F78C
:1026F00080917503833009F470C0B8F4813009F417
:1027000047C0823009F4B1C08091E80083FF7EC2E7
:1027100080917403909175039A3008F077C2E92F85
:10272000F0E0E457F44D0C94D72A8A3009F48CC0B9
:102730008B3009F46FC0893039F78091740381328E
:1027400019F780917803909179030297E8F68091C8
:10275000E800877F8093E8008091E80082FF38C01E
:102760009091F3008091F200029731F48091F10092
:10277000813011F0863021F48091F100809367035D
:102780008091E8008B778093E8000E94FA05BCCF27
:1027900080917403813A09F0B7CF8091E800877F78
:1027A0008093E8008091780390917903892B61F4FC
:1027B00068E088E693E070E00E94A6068091E80059
:1027C0008B778093E800A0CF60E090E080E0F3CFCB
:1027D000809172038111C0CF97CF80917403813AA9
:1027E00009F092CF8091780390917903892B09F0B9
:1027F0008BCF8091E800877F8093E8008091E8008C
:1028000080FFFCCF809142018093F1008091E8002D
:102810008E77B9CF80917403813209F075CF8091A2
:10282000780390917903892B09F06ECF8091E800AD
:10283000877F8093E8000E94FA0580917603809359
:1028400042010E94361360CF80917403813209F0F7
:102850005BCF8091E800877F8093E8000E94FA05B3
:1028600080917703809366034FCF80917403813A00
:1028700009F04ACF8091E800877F8093E80080913B
:10288000E80080FFFCCF80916603BECF803899F0CE
:10289000823809F0BBC1809178038F70873008F0CF
:1028A000B5C18093E9008091EB0085FB882780F912
:1028B0001092E90006C0809170039091710391110C
:1028C00082609091E800977F9093E8008093F100F8
:1028D0001092F1008091E8008E7794C1882309F46A
:1028E00082C1823009F092C180917603811185C145
:1028F000809178038F702FEF280F263008F086C163
:102900008093E9002091EB0020FF77C1933031F4F0
:102910008091EB0080628093EB006FC19091EB009F
:1029200090619093EB0021E030E001C0220F8A9586
:10293000EAF72093EA001092EA008091EB008860A9
:10294000EACF811163C1109176031F778091E30074
:102950008078812B8093E3008091E800877F8093CB
:10296000E8000E94FA058091E80080FFFCCF80918A
:10297000E30080688093E30082E0111183E080939C
:10298000720344C18058823008F040C180917603C0
:10299000909177038C3D23E09207A1F583E08A8331
:1029A0008AE289834FB7F894DE01139620E03EE077
:1029B00051E2E32FF0E050935700E49120FF03C071
:1029C000E295EF703F5FEF708E2F90E0EA30C0F03D
:1029D000C7968D939D932F5F243159F74FBF8091F8
:1029E000E800877F8093E8006AE270E0CE010196FC
:1029F0000E94A6068091E8008B778093E80006C1CC
:102A0000C096E7CF4091780350917903292F33275F
:102A10002330310509F444C078F52130310509F43B
:102A20006FC08BE390E0E9EFF4E02230310509F06C
:102A3000EDC02091E800277F2093E80020917A03E1
:102A400030917B038217930708F49C0140E0211525
:102A5000310509F064C0411162C08091E80082FD37
:102A6000C9CF80917203882329F2853019F28091B1
:102A7000E80083FFF2CFBECF21323105A9F1223227
:102A8000310509F0C3C04115510509F443C0413077
:102A9000510509F0BBC086EB90E0EFEFF3E0C9CF42
:102AA000992781309105C1F0009759F0029709F0FC
:102AB000ADC0E6E4F5E0E4918E2F90E0E6E4F5E0C9
:102AC00007C0E6E6F5E0E4918E2F90E0E6E6F5E05B
:102AD000009709F49BC0ADCFE4E5F5E0E4918E2FBB
:102AE00090E0E4E5F5E0F4CF4115510571F0413097
:102AF000510509F08BC089E090E0E4E2F5E099CF60
:102B000082E190E0E4E3F5E094CF89E090E0EBE04F
:102B1000F5E08FCF84E490E0E5EBF4E08ACF80919C
:102B20007203882309F466CF853009F463CF80915E
:102B3000E80083FD5FCF8091E80082FD8ECF809119
:102B4000E80080FF84CF9091F3008091F20021157E
:102B5000310519F08830910550F041E0089709F0EF
:102B600040E08091E8008E778093E80070CF449138
:102B70004093F1003196215031090196E8CF803819
:102B800009F044C08091E800877F8093E80080913D
:102B900073038093F1009ECE811138C010917603AB
:102BA0001230A0F58091E800877F8093E8001093B1
:102BB00073030E94FA05112311F084E005C080918F
:102BC000E30087FDFACF81E08093720342E061EC7D
:102BD00081E00E94190642E261EC82E00E9419063F
:102BE0008091720313C080917603813079F481E083
:102BF000933009F080E0809371031092E900809196
:102C0000E800877F8093E8000E94FA058091E80041
:102C100083FF0AC08091E800877F8093E80080915D
:102C2000EB0080628093EB00AA96E3E00C94892A83
:102C30001F920F920FB60F9211242F933F934F9331
:102C40005F936F937F938F939F93AF93BF93CF9334
:102C5000DF93EF93FF93D091E900DF708091EC0058
:102C6000C82FC17080FDC0E81092E9008091F0008B
:102C7000877F8093F00078940E9467131092E90098
:102C80008091F00088608093F000CD2BCF70C093CE
:102C9000E900FF91EF91DF91CF91BF91AF919F91AB
:102CA0008F917F916F915F914F913F912F910F90F5
:102CB0000FBE0F901F9018950E9436132FEF84E3DC
:102CC0009CE0215080409040E1F700C0000088E186
:102CD0009AE00FB6F894A895809360000FBE909389
:102CE0006000FFCF4091520390915403209155030F
:102CF000662309F469C0942B922B20915303922BE5
:102D000031F098E09093490391E090934A038D3C11
:102D100041F40E9400088195809353030E940F1391
:102D200008958E3C19F40E940008F6CF8F3C31F4D0
:102D30000E940008819580935203F0CF803D19F4E2
:102D40000E940008F8CF893D29F40E94DE07809395
:102D50005403E4CF8A3D21F40E94DE078195F7CF2A
:102D60008B3D31F40E94DE07819580935503D6CFC9
:102D70008C3D19F40E94DE07F8CF9FE2980F98303F
:102D800070F4815D990B21E030E001C0220F8A953B
:102D9000EAF780915103822B80935103BFCF8D3D81
:102DA00031F480914B03816080934B03B7CF8E3D0C
:102DB00021F480914B038260F7CF8F3D09F0AECFB5
:102DC00080914B038460F0CF8D3C59F48091530384
:102DD00087FF0DC01092530341110BC0109249039D
:102DE00008C08E3C81F48091530318169CF3442351
:102DF00081F08091540390915503892B09F08ECF77
:102E000010924A038BCF8F3C49F447FFF0CF1092CA
:102E10005203809153038111ECCFE0CF803D19F430
:102E20001416ACF3E4CF893D29F4191604F7109277
:102E30005403DDCF8A3D19F497FFD9CFF8CF8B3DEE
:102E400029F427FFD4CF10925503D1CF8C3D19F42C
:102E50001216CCF3CCCF9FE2980F983090F4815D9E
:102E6000990B21E030E0B90102C0660F771F8A9507
:102E7000E2F7CB0180959091510389238093510310
:102E8000B6CF8D3D31F480914B038E7F80934B0301
:102E9000AECF8E3D21F480914B038D7FF7CF8F3DD8
:102EA00009F0A5CF80914B038B7FF0CF882381F170
:102EB0009CEF980F913A28F40E9424070E94020D7B
:102EC000089590E2980F983050F4877091E001C017
:102ED000990F8A95EAF7892F0E94CF0AEFCF9BE5D9
:102EE000980F933028F490E080E00E94A80708959E
:102EF00098E5980F9B3128F490E080E00E948307CA
:102F0000089593E3980F933118F460E00E947216CD
:102F10000895CF93C82F8823B1F18CEF8C0F813A9D
:102F2000A0F580914201882301F180915E0387FF23
:102F30001CC0EC2FE695E695E695F0E0E456FE4FD2
:102F4000828190E04C2F477021E030E002C0220FD8
:102F5000331F4A95E2F782239323892B79F08C2F34
:102F60000E9424070E94020D09C0E6E9F1E0819168
:102F7000C817A9F381E0EC39F807C9F78C2F0E9434
:102F80004F070E94020DCF91089580E28C0F883088
:102F900068F4C77021E030E001C0220FCA95EAF75B
:102FA00080910802822B80930802EBCFEBE5EC0FB7
:102FB000E33040F4F0E0ED5BFE4F808190E00E9452
:102FC000A807E1CFE8E5EC0FEB3150F4F0E0EE0FAD
:102FD000FF1FEA5BFE4F808191810E948307D3CF60
:102FE00083E38C0F833178F661E08C2F0E94721698
:102FF000CACF0F931F93CF93DF93C62FD42F022FE7
:10300000FC0185818823A9F06093B8030E94031313
:103010009093B7038093B603C77081E001C0880F17
:10302000CA95EAF70E945B0DDF91CF911F910F9136
:1030300008958091B803681335C08091B6039091CC
:10304000B7030E94F412883C910560F510E21D0F51
:10305000CD17B9F080E28C0F883040F4C77081E062
:1030600001C0880FCA95EAF70E94540D183048F441
:1030700081E09D2F977001C0880F9A95EAF70E9412
:103080005B0D802F0E948917802F0E9456171830E1
:1030900058F6D77081E001C0880FDA95EAF70E94F0
:1030A000540DC2CFC77081E001C0880FCA95EAF7FE
:1030B000F6CFB0E0A0E0EFE5F8E10C94662A8C01D1
:1030C000FC018481882309F467C021E0408151819B
:1030D0006281738195810E94170CEC01F801958142
:1030E000992309F464C48181809370028081809364
:1030F0006F0280E280933501D0936E02C0936D021F
:103100009E0130522115304238F4F8018681807FCB
:1031100009F45EC0FE010AC09E0130542115304101
:10312000C8F4F8018681807FFE0109F0FF27ED33A6
:10313000F10528F4E455FF4FE491E0933501FE01D9
:10314000E851FC47E730F10508F042C0EA56F44D7B
:103150000C94D72A9E013A9521153F41D8F29E0141
:10316000205A32452032310550F3FE01E0CF26E2ED
:1031700041EE61EEC8010E94F9178091DD01877070
:1031800059F0F8018581882339F080915F0382FF2F
:1031900003C082E00E94C80BCDB7DEB7EAE00C9412
:1031A000822A27E245EE65EEE5CF26E241EE60EEAB
:1031B000E1CF27E245EE64EEDDCF26E241EE62EE9E
:1031C000D9CF27E245EE66EED5CF28E241E0EBCF3E
:1031D0001092B8039E0130572332310508F001C424
:1031E00084E090E00E94402B90935F0380935E0305
:1031F000FE01E150F047E232F10520F4E356F44DD0
:103200000C94D72A80915E03816080935E0395C001
:1032100080915F03886080935F038FC080915E031D
:103220008260F3CF80915E038460EFCF80915E0374
:103230008860EBCF80915F038160EDCF80915F0369
:103240008260E9CF80915E038061DFCF80915E0371
:103250008062DBCF80915E038064D7CF0E943613FB
:1032600080915E038068D1CF80915E038C60CDCF6A
:1032700080915F038360CFCF80915E038E7FC5CF47
:1032800080915F03877FC7CF80915E038D7FBDCF25
:1032900080915E038B7FB9CF80915E03877FB5CF2E
:1032A00080915F038E7FB7CF80915F038D7FB3CF17
:1032B00080915E038F7EA9CF80915E038F7DA5CF25
:1032C00080915E038F7BA1CF0E94361380915E03B5
:1032D0008F779BCF80915E03837F97CF80915F0331
:1032E0008C7F99CF80915E0382FB992790F921E032
:1032F000922790FB82F990FB83F987CF80915F033F
:10330000982F909591708E7F892B90FB81F983CFB8
:1033100090915E03892F8F7B96FF806476CF0E9409
:10332000361390915E03892F97FB87F980586DCFF4
:1033300061E08EE090E00E94562B60915E037091F8
:103340005F0384E090E00E94742B0E94361315CF37
:1033500060E0EFCF90915E03892F8F7E94FF8061B4
:1033600054CF90915E03892F8E7F90FF81604DCF67
:1033700090915F03892F877F93FF88604CCF85E30F
:1033800040C38091BC01811104C089E20E942407DE
:103390003AC385E3FBCF992309F415C3C3303CE757
:1033A000D30709F4D8C008F0BBC0C1159CE7D90702
:1033B00009F4C4C0C130DC4709F4D3C0F8018581E9
:1033C000C081D181882309F4DAC0CE010E94070BA5
:1033D000F82E682FCE010E947B0BBE018F2D0E941C
:1033E00092090E94B109D82FC92FA82EF801C580D3
:1033F000B680B2943FE0B3228091DD01877009F17D
:10340000EC2CCC20F9F0892F807F803469F080E2A9
:103410008D0F8830B0F0892F807E803229F4F1E062
:10342000FD1778F4BB2069F080915F0382FF09C02B
:1034300082E00E94C80B8091DD018770EE24E39446
:103440008111E12CDC2ED2942FE0D2222BE02D151D
:1034500008F4FAC0ED2DF0E0E154F44D0C94D72AB5
:1034600080913B0380FF1CC0282F2E7F20933B03BD
:1034700030913C0340913D0350913E0360913F03E6
:103480007091400380914103909142030E94780E15
:10349000809198028160809398020E9434086DCEDA
:1034A000816080933B0361E0869586950E94FD0FC5
:1034B00064CE46E250E161E370E10E942E085DCEE9
:1034C00041E350E166E270E1F8CF45EB5FE06FEB7E
:1034D0007FE0F3CF4FEB5FE065EB7FE0EECF4BE9B2
:1034E0005FE068EA7FE0E9CF48EA5FE06BE97FE010
:1034F000E4CF41E85FE06EE87FE0DFCF4EE85FE0D9
:1035000061E87FE0DACF49EC5FE063EE7FE0D5CFA2
:1035100043EE5FE069EC7FE0D0CF61E081E0C6CFB1
:10352000CB35FCE7DF0749F1CC352CE7D207D9F0E2
:10353000CA35DC4709F042CF81E01CC00E94361337
:103540008FEF94E3ECE081509040E040E1F700C061
:1035500000000E9407076FEF7FEF90E080E00E947D
:10356000742B0E945C1680915F0382FB882780F990
:1035700091E089270E94361021CF80E0FBCFCE0159
:103580000E94480BF82E29CF3C2F3F70F32EC07FAE
:1035900019F0F29490EFF922CC20B9F0FF2069F0F5
:1035A00080E28D0F883010F0A11009C080910802D0
:1035B000F82AF09208020E94020D8D2F43C08091DC
:1035C000DF01F82AF092DF01F6CF8D2F0E94561707
:1035D000FF20D1F1D05ED83010F0A11004C08F2DA3
:1035E0000E94CF0A06C0F0948091DF01F822F09289
:1035F000DF010E94020D28C08C2F8F70F82EC07F33
:10360000C03219F0F29480EFF822AA2059F091E02C
:10361000A91609F479C0CC2009F485C0BB2009F4AF
:1036200047C0CBCF80915F0382FD3EC0CC20B1F17B
:10363000FF2039F080910802F82AF09208020E94D7
:10364000020D80E00E9489172D2D2850330B243065
:10365000310510F40E94CD07EE20A9F08091DD0124
:1036600080FD11C0F80115828695869586950E9489
:10367000DF0BC8010E9459188091DD01869586955F
:1036800086950E94B60B20E0F8014081518162814D
:103690007381848195810E94170C7ECD80E00E9409
:1036A0005617FF2089F29BCFCC20A1F0B11004C0A7
:1036B0008F2D0E945B0DC8CFE1E0BE12C5CF809177
:1036C000DE019F2D9823F91609F4BECFF82AF09257
:1036D000DE01BACFB110B8CF8F2D0E94540D90915A
:1036E000DE018F2D892329F08F2D809589238093EA
:1036F000DE018091BD019F2D982309F4A5CFF094A0
:10370000F822F092BD01A0CFCC2029F0F5E0FB1506
:1037100008F49ACFCDCF24E02B1508F495CF8F2D48
:103720000E94540D91CFBB20D1F339E3A31209C0FD
:103730008FEF97EEE3E081509040E040E1F700C06A
:1037400000008D2F0E9456177FCF8C2F869586956F
:10375000837069F0813009F077CF8D2F9C2F9370A3
:10376000C11002C080E090E00E9483076DCF8D2FD2
:103770009C2F9370C11002C080E090E00E94A807C7
:1037800063CF6C2D8D2F0E9472165ECF8C2F8370AD
:1037900009F03FC0C11058CF4D2F42954695477054
:1037A000440F440F2D2F2F7030E0042E02C0220F43
:1037B000331F0A94E2F790E080E0D4FF09C08FE065
:1037C00090E002C0880F991F4A95E2F78095909586
:1037D000C695C695C370C23099F078F440915002F6
:1037E00050915102C13039F0822B932B84239523C1
:1037F0000E94EF0B29CF242B352B822B932BF8CF54
:10380000822B932B209150023091510282279327D3
:10381000EFCF8695CC2011F08C2F8170882309F48E
:1038200013CF4D2F429546954770440F440F2D2FCF
:103830002F7030E0042E02C0220F331F0A94E2F7EB
:1038400090E080E0D4FF09C08FE090E002C0880FD4
:10385000991F4A95E2F780959095C695C695C370D5
:10386000C23099F078F44091640250916502C13001
:1038700039F0822B932B842395230E94B10BE4CE45
:10388000242B352B822B932BF8CF822B932B20913B
:1038900064023091650282279327EFCFCF70CC204E
:1038A00029F08C2F0E94DF0B8D2F03CF8D2F0E94CC
:1038B000540D8C2F0E94B60BC7CE8D2FF2EFAF1692
:1038C00099F1FA1570F020EFA216D1F031EFA3169E
:1038D00091F0CC2009F45BC0B1106FCE8C2F8F71AA
:1038E00027C093EFA91639F1E4EFAE12F2CF809121
:1038F0005F0382FD2EC08C2F8F71CC20D9F218C0AF
:10390000CC2069F0F4E0FB1508F49ECECF7181E085
:1039100090E002C0880F991FCA95E2F7B8CF25E062
:103920002B1508F491CEF2CF8C2F8F71C110C2CF1E
:103930000E94DF0B89CE90E080E0CC2009F49DCF7F
:10394000CF7181E090E002C0880F991FCA95E2F71D
:1039500094CFCC2089F0CF718C2F0E94DF0B809107
:103960005F0382FF07C038E0C39FC001112483605A
:103970008093DD018C2FDCCF81E00E94C80B81E0B9
:103980008B1508F061CE82E00E94C80B5DCEBB2093
:1039900059F0893309F0D5CE9FEFE7EEF3E091506F
:1039A000E040F040E1F7CBCE8C2F8F7183CFFE014A
:1039B000E851FC47E730F10508F4C8CBC6312CE7E5
:1039C000D20709F4DECC809108028272FE01E05237
:1039D000F847E531F10508F0F1CCE553F44D0C94CE
:1039E000D72AC631FCE7DF0709F0D5CC8091080261
:1039F0008A7A91E009F490E09093BC018111BFCCE8
:103A000089E20E944F070E94020DB7CBCF93DF934C
:103A10008091DC01807F09F04DC08091DB0188231B
:103A200009F448C0E091B50350917C03C091D701DF
:103A3000D091D6016091D8017091D90147E05E170D
:103A4000C9F18E2F90E0E49FF0011124E358FC4F60
:103A50002481222391F1489FF001499FF00D112408
:103A6000DF01A358BC4F11962C9111972C1325C040
:103A70002C912D1322C015962C91159721111DC044
:103A800012962D913C91261B370B283C3105A8F44A
:103A90008091DC018F7080618093DC01ED57FC4FD9
:103AA00080818F708061808386ED91E00E9459183B
:103AB0000E94FD0ADF91CF910895FC013196E770D5
:103AC000BECFA4E1B0E0E7E6FDE10C94642A8C01EE
:103AD00086E0F801DE011F9601900D928A95E1F7CC
:103AE000F8018481E58096EDA92E91E0B92E9091A0
:103AF000DA01911128C0882319F1EE20F1F0C801F4
:103B00000E94F40BF82E8823C1F087E0F801D5015C
:103B100001900D928A95E1F78091DA01813031F4BC
:103B20008091D6019091D7010E943B0B0E94061D07
:103B30008F2D6496ECE00C94802AC8010E945918DD
:103B4000FF24F394F5CFD080C18082809380F090E1
:103B5000DB012091D8013091D901A401421B530B04
:103B6000FF2009F4D9C0483C510508F092C08823D1
:103B7000F9F29091D7018091DC01282F207F09F084
:103B800056C0C91214C09091D601D91210C0E110CC
:103B900048C08F7080618093DC0186ED91E00E94C7
:103BA00059188091DC01F8018683F12CC1CFE11016
:103BB00038C06C2D8D2D0E9474056C2D8D2D0E94AA
:103BC0007405E82E8111F1CFDF86C88A8F85988928
:103BD0000E943B0B292F22952F70243058F49F70A0
:103BE000223088F0992399F0F8019681907F79F43A
:103BF000FE2C9ECF2A5F2F70223068F0C8010E94F1
:103C00005918EF2CF5CF992311F0882389F3805EA2
:103C1000883070F3F3CF803F58F3815F833070F7C3
:103C2000E7CF8091DC0181608093DC01BECFC912B7
:103C300007C09091D601D91203C0EE2009F48DC0BF
:103C4000C8010E94F40B882309F477CFEE2009F411
:103C500074CF8091DC01803288F02091D6013091C0
:103C6000D701398728879B868A869091DA019C87BD
:103C70001D868E87CE0108960E94591887E0F801AC
:103C8000A6EDB1E001900D928A95E1F70E94061D24
:103C900057CF9091DC01292F207F51F486ED91E0E0
:103CA0000E94591887E0F50111928A95E9F77DCFB6
:103CB000882309F43DCF8091D7018C1110C08091E9
:103CC000D601D8120CC0E1100AC09683C8010E9428
:103CD000591887E0F50111928A95E9F729CFC801B3
:103CE0000E94F40B882309F428CFEE2009F425CF95
:103CF0008091DC01803210F22091D6013091D70101
:103D00003A8329839C828B829091DA019D831E8263
:103D10008F83CE010196B0CF483C5105D0F6882361
:103D200009F40ECFFE2CEE2009F407CF8091D701C5
:103D30008C1120C08091D601D8121CC08091DC016A
:103D400080FD0FC0982F907F61F08683903F31F007
:103D5000982F907F905F8F70892B8683C8010E9477
:103D6000591887E0F801A6EDB1E001900D928A950F
:103D7000E1F7DECEC8010E94F40B81117FCF809164
:103D8000DC0181608093DC01C8010E945918D0CE0B
:103D9000ABE1B0E0EEECFEE10C946C2A4E8B5F8B55
:103DA000688F798F8A8F9B8F192F91111092DF0165
:103DB0001D8A86E0FE017696DE011F9601900D9227
:103DC0008A95E1F70A8D002341F021E04F8558895B
:103DD00069897A89C8010E94170C0B8B1C8B87E0BC
:103DE000FE013F96DE01189601900D928A95E1F74B
:103DF000CE0108960E94611D81112AC087E0FE0154
:103E00003896DE01119601900D928A95E1F78C8526
:103E10008823F1F020917C0330E0C901019687707E
:103E200099274091B50348171906E9F097E0929F4A
:103E3000D001939FB00D1124A358BC4FFE013196C1
:103E400001900D929A95E1F780937C030E94FD0A00
:103E500017E08091B50390917C03891312C06B9693
:103E6000E4E00C94882A0E94361310927C0310928E
:103E7000B50387E0E6EDF1E0DF011D928A95E9F7F1
:103E8000E7CF819FC001112483589C4F0E94611D80
:103E9000882329F38091B50390E0019687709927D4
:103EA0008093B503D6CFA3E1B0E0E9E5FFE10C9440
:103EB000632A8E01045F1F4F88E0D8011D928A9506
:103EC000E9F78EE7C82E81E0D82EF12CE12CAA2448
:103ED000A394B12C28E8822E21E0922EF601819144
:103EE0006F018F3F09F442C0F894E82FE295EF701C
:103EF000F0E021A18F70A50102C0440F551F8A95E3
:103F0000E2F7CA01922F982B91A392A18095892361
:103F100082A3789400C0E2E8F1E0712C31E02191B5
:103F20002F3F09F4A3C0A22FA295AF70B0E09096E6
:103F30008C9190E02F7002C0959587952A95E2F7B5
:103F400080FD94C0832F782A330F8E169F0639F791
:103F5000F601319780818F3F11F00E94700850EA7E
:103F60005A95F1F7F801EE0DFF1D70828FEFE81AF8
:103F7000F80A94E0E916F10409F0B0CF48E050E007
:103F8000B80186E492E00E941C2B009741F028E0E3
:103F9000F801A6E4B2E001900D922A95E1F70091B4
:103FA0004F0210E00D5A1D4F892B09F461C081E0CA
:103FB00080930D020E94031390930C0280930B02D6
:103FC000F12CE0905603EE2009F4ACC019821A825D
:103FD0001B821C82809141028A3008F06DC04EE441
:103FE00051E1BE016F5F7F4FC8010E94F50D88232C
:103FF00009F487C04CED50E1BE016F5F7F4FC801EF
:104000000E94F50D882309F47CC048EF50E1BE0101
:104010006F5F7F4FC8010E94F50D882309F471C0BE
:104020004EEA50E1BE016F5F7F4FC8010E94F50D5F
:10403000882309F466C01092410280914E0290E0FC
:1040400044E050E0BE016F5F7F4F8D5A9D4F0E944C
:104050001C2B21E020931402892B09F044C0E12C91
:104060008E2D8F296396EDE00C947F2A80E06BCF34
:10407000F0900D02FF2009F4A3CF80910B029091E4
:104080000C020E94F412059708F49ACF44E050E025
:1040900066E472E0C8010E941C2B892B59F084E071
:1040A000E6E4F2E0D80101900D928A95E1F71092D2
:1040B0000D0287CFF12CFBCF80910E0290910F0261
:1040C0000E94F412843F914008F089CF809114023D
:1040D000882329F284E0FE013196DF011D928A9542
:1040E000E9F710921402E0914E02F0E0ED5AFD4F14
:1040F00089819A81AB81BC8180839183A283B383C0
:10410000AFCF809141028F3F31F08F5F80934102AA
:104110008A3008F492CF0E94031390930F02809389
:104120000E02D4CFC0904E02D12CF601ED5AFD4FB5
:104130006F0184E0F801A2E2B2E001900D928A954D
:10414000E1F782E292E00E9493058093210284E0ED
:10415000E6E2F2E0D60101900D928A95E1F78090B7
:104160002A0290902B02A0902C02B0902D028091F8
:10417000100290911102A0911202B09113028816C0
:104180009906AA06BB06B1F0809210029092110225
:10419000A0921202B09213020E941807861A970A80
:1041A000A80AB90A8092420290924302A092440265
:1041B000B09245028BE0EEE2F2E0DE011196019052
:1041C0000D928A95E1F72981822F869586950A813D
:1041D000DB80CC801B8510923802112309F440CF7C
:1041E00010FF0AC090913B0320FF0FC09160909395
:1041F0003B0360E00E94FD0F11FF32CF20E04C2D09
:104200006D2D802F0E949E0E2BCF9E7F90933B039F
:10421000809198028160809398020E943408ECCFCC
:10422000A6E0B0E0E6E1F1E20C946C2A0E940313F0
:104230008C018091090290910A028017910781F008
:1042400019821A820E940313682F49815A81792F9B
:1042500080E090E00E94C81E10930A0200930902B9
:104260002696E4E00C94882A1F921FB61F92112410
:104270008F939F93AF93BF9380916003811113C07D
:104280008091610390916203A0916303B0916403F4
:104290004196A11DB11D8093610390936203A09389
:1042A0006303B0936403BF91AF919F918F911F906F
:1042B0001FBE1F901895CDB7DEB763970FB6F89461
:1042C000DEBF0FBECDBF85B7806885BF85B780686C
:1042D00085BF84B7877F84BF0FB6F894A895809177
:1042E0006000886180936000109260000FBE80E8DB
:1042F00090E00FB6F89480936100909361000FBE38
:104300008EE698E090939301809392010E94AA0513
:104310000E944B068091E20084608093E2007894D2
:10432000809172038823A1F01091E9001F70909191
:10433000EC00892F817090FD80E8182B1092E90025
:104340008091E80083FD0E9467131F701093E900BD
:1043500082E084BD93E095BD9AEF97BD80936E0097
:1043600010924202109243021092440210924502AF
:104370008091D80080618093D8002AE12A95F1F7D6
:1043800000C08091D900182F117080FD04C00E94D8
:10439000AA051092720310935603109357031093BB
:1043A0002801112309F4D7C010923D018BE18093BD
:1043B0003E010E94E828809128018091280194E024
:1043C000811190E090934F0284E0891B80934E020C
:1043D00084E90E94700886E60E94700887E90E94BE
:1043E000700886EC0E94700802E811E0D8018D91F7
:1043F0008D018F3F11F00E947008B1E008381B0753
:10440000A9F788E0E3E5F2E0DF01282F1D922A9565
:10441000E9F7E6E4F2E0DF011D928A95E9F790E022
:1044200080E00E94402B863E9E4F09F466C066EEF7
:104430007EEF90E080E00E94742B60E082E090E0EC
:104440000E94562B81E090E090935102809350029D
:1044500061E083E090E00E94562B60E074E184E02C
:1044600090E00E94742B60E086E090E00E94562B62
:1044700060E087E090E00E94562B40E050E0BA01F7
:1044800088E090E00E94682B60E084E290E00E9467
:10449000562B60E087E190E00E94562B60E08CE0B4
:1044A00090E00E94562B60E08DE090E00E94562B39
:1044B00019821A821B821C821D821E821F8218860C
:1044C00048E050E068E170E0CE0101960E94462B82
:1044D00040E050E0BA0180E290E00E94682B40E0AA
:1044E00050E0BA018FE090E00E94682B40E050E07D
:1044F000BA0183E190E00E94682B82E090E00E9484
:10450000322B80935B0284E090E00E94402B9093DA
:104510005F0380935E030E94531FEFEFF6E721E0F5
:10452000E150F0402040E1F700C000000E94531F1E
:1045300080915703E4E08111E0E0F0E0ED5AFD4F97
:10454000808181FF0EC06FEF7FEF90E080E00E94DE
:10455000742B0E9407078BE180933D0180933E01FD
:104560002ACF83E090E00E94322B90E00E94EF0B74
:1045700080915603811139C182E08093910280E8D5
:104580008093B9030E9486276BE070E08FE792E08A
:104590000E94280E8823E9F18091910265E070E085
:1045A00081FD25C18AE792E00E94280E882389F1C7
:1045B0006DE070E088E692E00E94280E882349F1C1
:1045C0000E941807605A75418F4F9F4F60934303B5
:1045D000709344038093450390934603ECEBF3E020
:1045E00080E092E0DF019C011D9221503040E1F714
:1045F000F093C305E093C2058FEF9FEF9093BB0349
:104600008093BA0381E0809348038093470310921C
:10461000920280915202811182C088E090E00E9453
:104620003A2B4B015C0184E290E00E94322B282F50
:1046300030E040E050E060E070E080E090E000E2D8
:104640000E94DD2A282939294A295B2920933B0326
:1046500030933C0340933D0350933E0360933F03EC
:1046600070934003809341039093420330919802EA
:104670003360309398022C7F09F043C025E02093EB
:104680003B0310923C032FEF20933D0328E7209338
:104690003E0310923F0325E030E04FEF58E760E023
:1046A0000E94780E88E090E00E943A2B6B017C011A
:1046B00084E290E00E94322B282F30E040E050E06E
:1046C00060E070E080E090E00E94DD2AB22FA32F2E
:1046D000F42FE52F5B0197018601BC29A12BFE2950
:1046E000E32BB0933B03A0933C03F0933D03E09393
:1046F0003E0360933F03B092400380934103909345
:1047000042030E94580880913B0380FF05C060E08F
:10471000869586950E94FD0F81E0809352028091DC
:104720005603811102C00E94EB2889E291E0909328
:104730005B0380935A031AE0C12ED12CE12CF12C9B
:104740008091720300E112E1853009F48DC00E946E
:10475000531F0CE512E0B3E5AB2EB2E0BB2ED50142
:10476000F80191918D9132E0E436F30709F486C0A7
:104770009817B9F340905603912C33243394D50104
:104780008D905D01F80151908F01581429F1712C21
:10479000662463945824852D8621B1F04420A1F02D
:1047A00079869A860E9403139C878B873D8691E0C9
:1047B000882D862109F490E09E8749855A856B856E
:1047C0007C858D850E94C81E7394660CF6E07F126E
:1047D000E2CFF80131978082939428E09212CFCFF4
:1047E0000E94870831E03F874EC080E0C6CE85E753
:1047F00092E0DACE80917203843031F10E94350E5E
:104800001092600388E190E0A0E40FB6F894A895B8
:10481000809360000FBEA093600083B7817F8460A7
:1048200083BF83B7816083BF7894889583B78E7F79
:1048300083BF0FB6F894A89580916000886180933B
:104840006000109260000FBE80917103882361F0B8
:104850000E94531FE3E5F2E081918111E0C22BE554
:1048600032E02E173F07C1F780917203853009F4BB
:10487000C1CF0E9436130E94CD0769CF98137ACF1B
:104880000E9410211F8680914803882309F4B3C039
:104890001091560380919302909194020E94F41219
:1048A000C29708F488C00E940313909394028093E7
:1048B00093028CEB93E09093C3058093C205112380
:1048C00009F4C2C18BEA92E00E94BC0C2091640200
:1048D00030916502832F9927009751F19C0188E060
:1048E000A901F4E056954795FA95E1F74115510570
:1048F00011F08C5F9A01A9015695479556954795F9
:104900004115510511F08E5F9A0136952795232B9D
:1049100009F08F5F813009F451C1882359F082304A
:1049200009F44FC1833009F44FC18AE892E004C012
:1049300080E0D6CF83EA92E00E94FC0C8091700266
:10494000805D0E943C0C89EB92E00E94BC0C80913F
:104950006F02805D0E943C0C85EB92E00E94BC0CD3
:1049600040906D0250906E0280913301909134011D
:104970004816590609F02BC180916C02803209F06B
:1049800026C1E6E6F2E08F0181918032E1F3F80181
:1049900001900020E9F79F012150310959010A15C2
:1049A0001B0508F44BC183EB92E00E94BC0C809184
:1049B00035010E943C0C8091BA039091BB03892B76
:1049C00009F047C1809147038823A9F00E94180786
:1049D0000091430310914403209145033091460315
:1049E000601B710B820B930B6F3F7F4F8F4F9F4765
:1049F00010F40E94350E8F8581110E94500E86E0C2
:104A0000E0E5F3E0DE01119601900D928A95E1F761
:104A100090905103B090520310915303A09054030F
:104A200000915503109252031092530310925403B5
:104A300010925503812F8B2909F445C080914E03B4
:104A400090914F030E94F4129C0190914903992385
:104A500009F405C225313105B0F19F3F19F09F5F80
:104A600090934903BB2059F00E9400089FEF1B144C
:104A70000CF491E0899F802D11248093520311231F
:104A800059F00E94000891E011160CF09FEF899FE9
:104A9000802D11248093530380915203882399F031
:104AA00080905303882079F00E942008882309F41D
:104AB000AEC180935203882D0E942008882309F4F8
:104AC000A8C1809353038A2D802B09F445C080919F
:104AD0004C0390914D030E94F4129C0190914A0363
:104AE000992309F4B7C121353105B0F19F3F19F081
:104AF0009F5F90934A03AA2059F00E94DE079FEF20
:104B00001A140CF491E0899F802D11248093540392
:104B1000002359F00E94DE0791E010160CF09FEF81
:104B2000899F802D112480935503809154038823FD
:104B300099F0A0905503AA2079F00E9420088823BC
:104B400009F469C1809354038A2D0E9420088823A8
:104B500009F463C18093550380915103891117C0F3
:104B600080915203882311F0B81211C02091530391
:104B7000222311F012130BC090915503992311F0C9
:104B8000091305C030915403332309F45EC10E9418
:104B90000F1386E0FE013196A0E5B3E001900D927F
:104BA0008A95E1F70E94CD0790919502891709F443
:104BB000C7CD809395020E941807C2CD8DE992E07F
:104BC000BBCE87E992E0B8CE80E992E0B5CE5092B4
:104BD00034014092330180E280936C02712C612C8D
:104BE00010926B0256E6852E52E0952E61E6A62EB7
:104BF00062E0B62E8401C301B201A70196010E94B2
:104C0000B52A605D603319F48016910631F04114C5
:104C100051046104710409F460E2D80114966C93A4
:104C2000C301B201A70196010E94B52A29013A01E8
:104C300001501109A016B106F1F6A3CED8018D914D
:104C40008D010E943C0CABCE8BEB92E00E94BC0C21
:104C5000B2CE80914803882309F4B4CE80919202A9
:104C60008111B0CE0E94500E2091BA033091BB0347
:104C70002115310509F4A6CE80E041E050E0482E30
:104C8000512C1A01082E02C0220C331C0A94E2F7A0
:104C9000B10162237323672B11F48F5FF0CF9091E2
:104CA000910290FF9AC0880F880F880F8093380177
:104CB00010923B01895F8093390183E080933C012E
:104CC00024E630E047E050E066E371E088E70E94C8
:104CD000BA27892B09F076CE95E0440C551C9A959D
:104CE000E1F78091910280FF8AC0E1E7F2E080E283
:104CF000DF011D928A95E9F7ECE8F1E0FB8BEA8B86
:104D000048E851E087E0A82E99249394AA89BB89AA
:104D10006D91BB8BAA8BFA018191AF01840D952D0A
:104D2000911D9C0124543C4F398B288BE62FF0E0D9
:104D3000EF58FD4F90E080E06A2C681AB92C082EDD
:104D400001C0BB0C0A94EAF76889798900E0DB01AD
:104D50001D91BD011B21262D201B2770822E022EA6
:104D6000000C330BB12F01C0BB0F8A94EAF78B2ED6
:104D70003195219531092770332701C016952A9561
:104D8000EAF7812A1081812A80820F5F0830F9F6C4
:104D9000019631968830910579F6EA89FB89E059C8
:104DA000F14009F0B3CF04E610E020E230E041E743
:104DB00052E060E488E70E944428892B09F002CE83
:104DC000209430948091BA039091BB032822392219
:104DD0003092BB032092BA03F5CD8295880F80767E
:104DE0008093380192013695279536952795209323
:104DF0003B01815E8093390120933C0161CFA20188
:104E000044545C4F04E610E020E230E0D2CF81E071
:104E100050CE81E056CE81E095CE81E09BCE09BD9B
:104E200019BD09B400FEFDCF8091D8008F7D80931D
:104E3000D8008091E00082608093E0008091E000E3
:104E400081FDFCCF0E9436130FCD822B892B09F4F4
:104E5000A0CE9DCE2B30310508F04ACE7DCE2B3032
:104E6000310508F0FCCD2FCEEF92FF920F931F93E8
:104E7000CF93DF93182FEB011092BC0084EA80934C
:104E8000BC000E9403137C018091BC0087FF27C0F7
:104E90008091B900887F883029F08091B900887F9F
:104EA000803189F51093BB0084E88093BC000E9498
:104EB00003138C018091BC0087FF1EC02091B900B4
:104EC000287F90E080E0283191F081E090E020346C
:104ED00011F490E080E091958195910908C0C70197
:104EE0000E94F412C817D90778F68EEF9FEFCDB75E
:104EF000DEB7E6E00C94862AC8010E94F412C817B7
:104F0000D907C0F6F2CF8FEF9FEFF1CF1092B90023
:104F10008CE08093B80008950F931F93CF93DF9395
:104F2000EB018093BB0084E88093BC000E940313D4
:104F30008C018091BC0087FF11C02091B900287FAF
:104F400081E090E0283211F490E080E09195819525
:104F50009109DF91CF911F910F910895CF3FDC0709
:104F600041F3C8010E94F412C817D90710F78EEF59
:104F70009FEFEFCFB0E0A0E0E0ECF7E20C94632A03
:104F8000782E5B016A0189010E9403134C01C1E084
:104F9000D0E00431110558F0C5E0D0E00F3F100714
:104FA00031F0C80164E170E00E944A2AEB01BE01C1
:104FB000872D0E9434277C0197FF09C00F3F1007FF
:104FC000B1F3C4010E94F4120817190780F7E50134
:104FD000CA0CDB1CCC15DD0511F0F7FE09C084E915
:104FE0008093BC00C701CDB7DEB7EDE00C947F2AFB
:104FF000B80189910E948C277C01ECCFB0E0A0E041
:10500000E4E0F8E20C94632A782E5B016A018901DE
:105010000E9403134C01C1E0D0E00431110558F0A7
:10502000C5E0D0E00F3F100731F0C80164E170E047
:105030000E944A2AEB01BE01872D0E9434277C0181
:1050400097FF09C00F3F1007B1F3C4010E94F4128B
:105050000817190780F7E501CA0CDB1CCC15DD0524
:1050600011F0F7FE09C084E98093BC00C701CDB7F9
:10507000DEB7EDE00C947F2AFE018491B8010E9416
:105080008C277C012196EACFB0E0A0E0EAE4F8E2C8
:105090000C94622A682E762E5A0169010E9403132D
:1050A0004C01C1E0D0E00431110558F0C5E0D0E07A
:1050B0000F3F100731F0C80164E170E00E944A2AF6
:1050C000EB01BE01862D0E9434277C0197FF1DC095
:1050D0000F3F1007B1F3C4010E94F412081719071B
:1050E00080F784E98093BC00C701CDB7DEB7EEE05E
:1050F0000C947E2AB80189910E948C277C01CC16E1
:10510000DD0679F3F7FEF6CFECCFB801872D0E94CC
:105110008C277C01E501CA0CDB1CF1CF8EE14A9B98
:1051200002C08150E1F74A9BFECF08955A9880E271
:105130008A95F1F75A9A0895FC013BE03A95F1F708
:1051400098E020E080E031E040E14A95F1F7880FF7
:105150004A9B02C08160232742E04A95F1F7000094
:1051600040E14A95F1F7915079F790E19A95F1F77E
:1051700099B132E03A95F1F7000040E14A95F1F734
:1051800092FB992790F992272081920F908308959E
:10519000A1E0B0E0EEECF8E20C946A2A19828C01EE
:1051A0007C01E60EF11C0E151F0541F481E099818A
:1051B000911180E02196E6E00C94862A0E948E28C8
:1051C000CE0101960E949C28F80181938F01EBCFBC
:1051D000529A5A9A089552985A9AEA9AE9E6F0E051
:1051E00080818F7C808308956150770B91E001C0AE
:1051F000990F6A95EAF720E031E0911108C0222367
:1052000091F05A9A80E28A95F1F75A980895492FB9
:10521000482339F05A9A232740E24A95F1F79695A8
:10522000ECCF5A98F9CF5A98EDCFFF920F931F9376
:10523000CF93DF93EC018C01060F111DC017D1072E
:1052400029F4CDB7DEB7E5E00C94872AF9900E94E7
:10525000962868E08F2D0E94F428F0CF1F920F92BD
:105260000FB60F9211240F931F932F933F934F93D9
:105270005F936F937F938F939F93AF93BF93EF93BE
:10528000FF93CF93DF930F92CDB7DEB719820E94C1
:105290008E28CE0101960E949C28082F069506951F
:1052A0000695282F22952570902F9570290F922F03
:1052B000937026952695920F982797708981982B41
:1052C00009F05CC0063008F059C080E18A95F1F71A
:1052D0005A9A529A82E08A95F1F700C05A9888E06B
:1052E000089F80011124D801A050BF4F1696ED9160
:1052F000FC9117973097A9F060917C0170917D0126
:1053000014962D913C911597260F371F11968D916C
:105310009C911297680F791F13964C9113978C915B
:105320000995F801E050FF4F6381662351F0209109
:105330007C0130917D0184819581820F931F0E94B1
:1053400015290E94962880E18A95F1F75A9852987B
:105350005A9A80E18A95F1F7F801E050FF4F608199
:10536000662351F020917C0130917D0181819281F1
:10537000820F931F0E94C8280E948E280F90DF91F1
:10538000CF91FF91EF91BF91AF919F918F917F91BD
:105390006F915F914F913F912F911F910F910F90BE
:1053A0000FBE0F901F9018950F931F93CF93DF930D
:1053B000EC0106970CF04CC0F894529A5A9885E08C
:1053C0008A95F1F700009C2F969595708C2F85702B
:1053D000980F892F83709695969523E0CC0FDD1F4B
:1053E0002A95E1F7980F8E01092B0E94962800C09C
:1053F00068E0802F0E94F42880E18A95F1F75298A6
:105400005A9A4A9B1EC087E090E04A991CC0FE0150
:10541000E050FF4F63816623F9F020917C013091C9
:105420007D0184819581820F931F0E94C82881117C
:1054300013C0529A5A9A7894DF91CF911F910F918D
:10544000089500C0DECF019729F4529A5A9A7894B1
:1054500080E0F2CF00C0D9CF0E948E2880E28A95EA
:10546000F1F75A98529A80E18A95F1F7C050DF4FD0
:105470006881662351F020917C0130917D01898102
:105480009A81820F931F0E9415290E949628789472
:1054900081E0D2CFAA1BBB1B51E107C0AA1FBB1FD3
:1054A000A617B70710F0A61BB70B881F991F5A95B0
:1054B000A9F780959095BC01CD0108952F923F9258
:1054C0004F925F926F927F928F929F92AF92BF9214
:1054D000CF92DF92EF92FF920F931F93CF93DF93C0
:1054E000CDB7DEB7CA1BDB0B0FB6F894DEBF0FBE1D
:1054F000CDBF09942A88398848885F846E847D846A
:105500008C849B84AA84B984C884DF80EE80FD806B
:105510000C811B81AA81B981CE0FD11D0FB6F894E1
:10552000DEBF0FBECDBFED010895991B79E004C029
:10553000991F961708F0961B881F7A95C9F78095D2
:10554000089597FB072E16F4009407D077FD09D035
:105550000E944A2A07FC05D03EF4909581959F4F02
:105560000895709561957F4F0895A1E21A2EAA1BA8
:10557000BB1BFD010DC0AA1FBB1FEE1FFF1FA21703
:10558000B307E407F50720F0A21BB30BE40BF50B00
:10559000661F771F881F991F1A9469F76095709589
:1055A000809590959B01AC01BD01CF010895EE0F50
:1055B000FF1F0590F491E02D0994002E083090F023
:1055C000982F872F762F652F542F432F322F222786
:1055D0000850F4CF220F331F441F551F661F771F3B
:1055E000881F991F0A95B2F7002D089597FD109412
:1055F000002E083098F00850232F342F452F562FB7
:10560000672F782F892F912DF4CF15949795879533
:105610007795679557954795379527950A95AAF7F2
:105620001124002D0895FB01DC0102C005900D92AC
:1056300041505040D8F70895FB01DC0104C08D9122
:105640000190801921F441505040C8F7881B990BF4
:105650000895FB01DC0102C001900D9241505040C1
:10566000D8F70895F999FECF92BD81BDF89A992790
:1056700080B50895A6E1B0E044E050E00C947C2BA6
:10568000A8E1B0E042E050E00C947C2BDC01A40FD8
:10569000B51F4150504048F0CB01840F951F2E910B
:1056A0000E94572B41505040D0F70895262FF9996A
:1056B000FECF92BD81BDF89A019700B4021639F071
:1056C0001FBA20BD0FB6F894FA9AF99A0FBE089542
:1056D0000396272F0E94572B0E94562B252F0E949E
:1056E000572B242F0C94572B0196272F0E94572BB2
:1056F0000C94562BDC01CB01FC01F999FECF06C0BE
:10570000F2BDE1BDF89A319600B40D92415050407F
:10571000B8F70895F894FFCF46146E1406166E1469
:105720000616A114C2140616BF15CC15D518D91823
:10573000B718D118DD18E118E5183C19B11944194A
:105740000E191219481916194C1958192219AA19A3
:1057500026195C192A19601988192E1964198F19CC
:1057600034196A1972191A1950191E19541938194D
:105770006E197E199819A81908194019B819C41A70
:10578000C41AFC1AFC1AA51BC11B241B241BC61B14
:105790004E1C5D1C5D1C301A591A601A651A6A1A73
:1057A0006F1A741A791A7E1A831A881A8D1ABD18FC
:1057B000BD18BD18BD18BD18BD18BD18BD18BD1841
:1057C00000000001000000000000000401000000D3
:1057D00004050000000000000409000000000000B3
:1057E0000B0D000000000000010407B50DAE0DA771
:1057F0000DA00DFF00200021007F220003003600D5
:10580000363601818283E200E900EA00B500B60085
:10581000B700CD008301CC008A01920194012102DE
:10582000230224022502260227022A02B300B40022
:105830006F0070009F01CB019F02A00221029466BD
:1058400097C6F4F5F6F73133000810181810080061
:02585000000155
:00000001FF
